:100000000C941B030C9438030C9438030C943803A1
:100010000C9438030C9438030C9438030C94380374
:100020000C9438030C9438030C94A02B0C94732C70
:100030000C9421220C9438030C9438030C9438034C
:100040000C9438030C9438030C9438030C94380344
:100050000C9438030C9487220C9438030C943803C6
:100060000C9438030C9438030C9438030C94380324
:100070000C9438030C9438030C9438030C94380314
:100080000C9438030C9438030C9438030C94380304
:100090000C9438030C9438030C9438030C943803F4
:1000A0000C9438030C9438030C94380307634236DD
:1000B000B79BD8A71A39685618AEBAAB558C1D3CF9
:1000C000B7CC5763BD6DEDFD753EF6177231BF00BD
:1000D0000000803F05A84CCDB2D44EB93836A902F5
:1000E0000C50B9918688083CA6AAAA2ABE00000036
:1000F000803F29002B00E100E100025100001E00BA
:10010000140004001D61E00035001F001A001600F5
:100110001B64E2002A002000080007000668E300D4
:100120002C00210015000900190003514D00220088
:1001300017000A0005000000000010502D0000000C
:100140002E0000004A0011502F0000003000000077
:10015000650023001C000B001100000000002400BB
:1001600018000D00100003514B0025000C000E007C
:100170003668E7002800260012000F003764E6000A
:100180004C002700130033003861E4004E000000EB
:1001900034003100E5000251000001002B00E100B5
:1001A000E100010000001E003800040033000100DF
:1001B00001001F00360012001400010001002000A1
:1001C000370008000D000100010021001300180095
:1001D0000E000100010022001C000C001B000000AA
:1001E000010010500000000000000000010011504C
:1001F00000000000000000000100230009000700CB
:1002000005000000010024000A000B00100001009E
:1002100001002500060017001A0001000100260059
:100220001500110019000100010027000F00160041
:100230001D0001000100010001000100E5000100B6
:1002400000000000000000000100010000003A0072
:100250001E0222022002010001003B0023021F02B5
:100260003402010001003C002F0226022F00010091
:1002700001003D00300227023000010001003E0075
:1002800021022D002D0200000100000035020000B7
:1002900034000000010000003500000000000000F4
:1002A00001003F0038002502270000000100400047
:1002B000240021001E000100010041002500220051
:1002C0001F00010001004200260023002000010061
:1002D000010043002D002E02370001000100440000
:1002E00045002E0001000100000000000100010097
:1002F00001000100000000000000F500F400010012
:10030000010000000000F2000000010001000000F8
:10031000F000F100F6000100010000000000F30011
:1003200000000100010000000000000000000000CB
:1003300001000000000000000000000001000000BB
:1003400000000000000000000100000000000000AC
:10035000000000000100000000005000FB00010050
:100360000100000052005100F900FA00B600000040
:1003700000004F00FC0001000100A800FF00FE008B
:10038000FD0001000100AE00A900AA00010001006B
:10039000000000047F3F1F643214643214783C1E56
:1003A0001E140A056801F000B40078005A0000002D
:1003B000000000010101010101010101020202022C
:1003C00002020202020303030303030303040404FF
:1003D00004040405050505050606060606070707C5
:1003E00007080808080909090A0A0A0A0B0B0B0C76
:1003F0000C0C0D0D0D0E0E0F0F0F10101111111210
:100400001213131414151516161717181819191A8C
:100410001A1B1C1C1D1D1E1F1F20202122222324ED
:10042000252526272728292A2B2B2C2D2E2F2F3028
:10043000313233343536363738393A3B3C3D3E3F3E
:100440004041424344464748494A4B4C4D4F505126
:100450005253555657585A5B5C5E5F6062636466E0
:1004600067696A6C6D6E707173747678797B7C7E67
:100470008081838486888A8B8D8F91929496989AB6
:100480009B9D9FA1A3A5A7A9ABADAFB1B3B5B7B9CC
:10049000BBBDBFC1C4C6C8CACCCFD1D3D6D8DADCA5
:1004A000DFE1E4E6E8EBEDF0F2F5F7FAFCFF040338
:1004B0003000000016034500720067006F00440022
:1004C0006F007800200045005A0000001603450028
:1004D000720067006F0044006F0078002000450044
:1004E0005A0000000403090409023B00020100A0B5
:1004F000FA090400000103010100092111010001B2
:100500002240000705810308000A090401000103D5
:1005100000000009211101000122C000070582032B
:1005200020000A1201100100000008EDFE0713016F
:10053000000102030105010902A10185020901A1CF
:100540000005091901290515002501950575018189
:1005500002950175038101050109300931158125D5
:100560007F95027508810609381581257F950175EB
:10057000088106050C0A38021581257F950175084A
:100580008106C0C005010980A1018503160100266E
:1005900003001A81002A8300751095018100C005AF
:1005A0000C0901A1018504160100269C021A010014
:1005B0002A9C02751095018100C005010906A10160
:1005C0008505050719E029E715002501950875013E
:1005D000810205081901290595057501910295010A
:1005E000750391010507190029EF1500250195F004
:1005F00075018102C005010906A101050719E0295D
:10060000E71500250195087501810295017508819E
:1006100001050819012905950575019102950175D6
:100620000391010507190029FF150026FF00950613
:1006300075088100C00011241FBECFEFDAE0DEBFD5
:10064000CDBF11E0A0E0B1E0E6E7F4E602C005901E
:100650000D92A43DB107D9F723E0A4EDB1E001C0AC
:100660001D92A83BB207E1F70E94CC280C94EA3116
:100670000C94000080B38C7080BB81B3836F81BB0E
:10068000089584B1807F84B985B1807F85B98AB1AE
:10069000837F8AB98BB1837F8BB93E984698089542
:1006A000CF93C82F873080F5809100019091010190
:1006B000892B99F564E670E080E40E94C30490936E
:1006C000010180930001892BD1F464E670E082E19E
:1006D0000E941F059093010180930001892B79F4FA
:1006E00081E090E001C0880FCA95EAF764E670E007
:1006F00080950E941F05909301018093000184E67C
:1007000090E0CF910C9472058A30B9F040F48830B3
:1007100071F0893079F0209A2898CF9108958C3023
:1007200091F070F08D30B9F73E9A4698F6CF219A45
:100730002998F3CF229A2A98F0CF239A2B98EDCFBD
:10074000529A5A98EACF539A5B98E7CF0C94EF06E7
:10075000CF93DF930E94190690E09093010180935C
:1007600000010E9441030E943A03E7E3F2E0A9E29C
:10077000B2E085ED91E011921D92EC0126E0199214
:100780002150E9F7069622E0E534F207A1F7DF9160
:10079000CF910C941A070E94190690E090930101E2
:1007A000809300010E9441030E943A03E7E3F2E0D4
:1007B000119282E0E534F807D9F70895CF93DF93DB
:1007C000E62FF0E0E75DFD4F40814827808386E01B
:1007D000689FF0011124EB52FE4F30E020E080E0F2
:1007E00061E070E050E0AAE0B22F91919923B9F056
:1007F000EF01219791509883EA0102C0D595C795E2
:10080000BA95E2F7C0FF03C0EF012197A8832F5FDD
:100810003F4F2630310541F7DF91CF910895EB012D
:10082000022E01C0CC0F0A94EAF78C2BE5CFCF93B0
:10083000DF93D82F873008F050C08091000190914D
:100840000101C0E0892B81F464E670E080E40E943D
:10085000C3049093010180930001892BB1F0C0E0A3
:1008600084E690E00E9472056D2F8C2F0E94DE03BB
:10087000ED2FF0E0E95CFD4F982F909520819223B9
:100880008C23892BDF91CF91089564E670E083E19A
:100890000E941F059093010180930001892BF9F6B6
:1008A00064E670E081E40E94C304909301018093A8
:1008B0000001892BA1F684E690E00E944E0597FF87
:1008C00005C09093010180930001C9CFC82FC09546
:1008D0001092010110920001C3CFCFB18FB1869564
:1008E00086958C73C3708C2BC82FC095BDCF0F938A
:1008F0001F93CF93DF938091000190910101892B89
:1009000091F08091D4018F5F8093D40181110BC04D
:100910000E94190690E09093010180930001892BB9
:1009200011F40E94C30507E312E0C0E08C2F0E947F
:100930005003D7E0DC0F8D2F0E9450038C2F0E94B4
:100940001704F80181938F018D2F0E941704F8017D
:1009500086830E944103CF5FC73041F70E94220780
:1009600081E0DF91CF911F910F910895E82FF0E082
:10097000E95CFD4F8081089508951092B9008CE0E4
:100980008093B8000895EF92FF920F931F93CF9337
:10099000DF93182FEB011092BC0084EA8093BC0017
:1009A0000E9451227C018091BC0087FF27C080916A
:1009B000B900887F883029F08091B900887F803124
:1009C000D9F51093BB0084E88093BC000E945122AB
:1009D0008C018091BC0087FF24C02091B900287F42
:1009E00090E080E02831B1F081E090E0203411F413
:1009F00090E080E09195819591090CC0CF3FDC0794
:100A000091F20E9451228E199F098C179D0758F26E
:100A10008EEF9FEFDF91CF911F910F91FF90EF909D
:100A20000895CF3FDC07A9F20E945122801B910B51
:100A30008C179D0770F2ECCF8FEF9FEFEBCF0F93EA
:100A40001F93CF93DF93EB018093BB0084E88093E7
:100A5000BC000E9451228C018091BC0087FF11C014
:100A60002091B900287F81E090E0283211F490E0D5
:100A700080E0919581959109DF91CF911F910F9120
:100A80000895CF3FDC0741F30E945122801B910B58
:100A90008C179D0708F38EEF9FEFEECF0F931F93F8
:100AA000CF93DF93EC0184E88093BC000E94512235
:100AB0008C018091BC0087FF08C08091BB0090E052
:100AC000DF91CF911F910F910895CF3FDC0789F3FC
:100AD0000E945122801B910B8C179D0750F38EEFC3
:100AE0009FEFEECF0F931F93CF93DF93EC0184E939
:100AF0008093BC000E9451228C018091BC0084FD37
:100B000007C090E080E0DF91CF911F910F91089591
:100B1000CF3FDC0791F30E945122801B910B8C1771
:100B20009D0758F38EEF9FEFEECF569A5E9A089589
:100B3000259A2D9A0895269A2E9A0895279A2F9AE3
:100B4000089556985E98089525982D9808952698AA
:100B50002E98089527982F9808950E94A1050E9425
:100B6000A4050E94A7050C94AA0590E09093890023
:100B70008093880090938B0080938A0090938D00DF
:100B800080938C0008950E94AD058FEF0E94B505FB
:100B90000E9498052FEF80E792E02150804090401E
:100BA000E1F700C000000E949B052FEF80E792E074
:100BB000215080409040E1F700C000000E949E0557
:100BC0002FEF80E792E0215080409040E1F700C095
:100BD00000000E94A4052FEF80E792E021508040A2
:100BE0009040E1F700C000000E94A7052FEF80E7CA
:100BF00092E0215080409040E1F700C000000E9448
:100C0000AA050C94AD0589EA8093800089E0809361
:100C1000810024982C983F988AB18F7C8AB96E986D
:100C2000479A8BB180638BB9769A0E94C3050C9466
:100C3000970680E290E090930101809300018091FB
:100C4000450281110EC00E94BD0481E080934502DF
:100C50002FEF83ED90E3215080409040E1F700C0FA
:100C6000000064E670E080E40E94C30490930101F8
:100C700080930001892B09F050C064E670E080E0A9
:100C80000E941F059093010180930001892B09F0B8
:100C900044C064E670E080E00E941F05909301016B
:100CA00080930001892BC9F564E670E08FE30E9410
:100CB0001F059093010180930001892B71F584E653
:100CC00090E00E94720564E670E080E40E94C30434
:100CD0009093010180930001892BF9F464E670E0A0
:100CE0008CE00E941F059093010180930001892BE5
:100CF000A1F464E670E080E00E941F05909301017A
:100D000080930001892B49F464E670E08FE30E9430
:100D10001F05909301018093000184E690E00E94FA
:100D2000720580910001089590E080E008952FEF12
:100D300089E698E1215080409040E1F700C0000032
:100D40000E9495052FEF83EC99E021508040904060
:100D5000E1F700C000000E9498052FEF83EC99E0B6
:100D6000215080409040E1F700C000000E949B05A8
:100D70002FEF83EC99E0215080409040E1F700C0D4
:100D800000000E949E052FEF83EC99E021508040E7
:100D90009040E1F700C000000E94A1052FEF83EC16
:100DA00099E0215080409040E1F700C000000E948F
:100DB000A4052FEF83EC99E0215080409040E1F7AB
:100DC00000C000000E94A7052FEF83EC99E021509E
:100DD00080409040E1F700C000000C94AA05CF933A
:100DE00060910203709103038091040390910503C5
:100DF0000E948520C82F0E94A1050E94A4050E9480
:100E0000A7050E94AA05C23039F0C33041F0C130B5
:100E100049F4CF910C949E05CF910C949805CF91F5
:100E20000C949B05CF91089581E0089581E0089589
:100E30000C9416070E94D220811102C00E9440210A
:100E40000C9403060C94A603282F2F7041F0822FD8
:100E500090E02A3010F44D9608950697089587E2A1
:100E600090E0089508950C9432070C943307089588
:100E70000E944D1A0E9437072FEF84E39CE0215017
:100E800080409040E1F700C000000C94AB22FF923C
:100E90000F931F93CF93DF938C01FC01C081D1810D
:100EA00080919002811150C08281882309F447C04B
:100EB000CE010E94621FF82E682FCE010E940B1FE8
:100EC000BE018F2D0E940D0AEC01B8010E94180787
:100ED000882309F4E9C0B801CE010E94830C88235D
:100EE00009F4E2C0CC3CFCE5DF0709F42EC108F0B0
:100EF00071C0C43C9CE5D90709F400C108F048C0A2
:100F0000C531FCE5DF0728F5C2308CE5D80708F0CD
:100F10009CC1C1159CE5D90709F4C1C0C130DC45AD
:100F200009F4C9C081E080934B0280934C02C80150
:100F3000DF91CF911F910F91FF900C941407CE0178
:100F40000E94391FF82EBCCFCE010E94621FBE0145
:100F5000B9CFC23CFCE5DF0709F4BEC008F0C3C04E
:100F6000C631DC45F9F60E944920F80192819923A7
:100F700009F448C28A7A91E009F490E0909346021D
:100F800081113EC289E20E94D21F0E9416208CC0AD
:100F9000F8018281C83CFCE5DF0709F4C4C068F4AD
:100FA000C63CECE5DE0709F4B9C008F4B2C08823FA
:100FB00009F47AC00E94990F77C0CA3C9CE5D90712
:100FC00009F4BDC008F4B5C0882309F46DC00E94BF
:100FD000380E6AC0C43DFCE5DF0709F414C170F5A2
:100FE000F8018281C03DFCE5DF0709F4D0C0D8F4E8
:100FF000CE3CECE5DE0709F4B7C008F4AEC08823A8
:1010000009F452C00E942A0E6630710581059105CF
:1010100040F00E942A0E683071058105910508F4A0
:1010200075C086E09EC0C23D9CE5D90709F4D7C0D3
:1010300008F4C1C08823C1F188E193C0C83DFCE534
:10104000DF0709F4C2C1B0F4F8018281C63DFCE5B6
:10105000DF0709F46CC108F4ECC0882309F496C1D9
:1010600010924C020E94512290934A0280934902AE
:1010700080E268C1CC3DECE5DE0709F4DFC0CD3D80
:10108000FCE5DF0711F1CB3DDC4509F04BCFF80162
:101090008281882349F080E00E946A2905C0F80116
:1010A000828181110E94380780E0DF91CF911F91EA
:1010B0000F91FF900895F80182818823A9F3809110
:1010C0002F03816080932F03EFCFF8018281882363
:1010D00059F30E944021E8CFF8018281882321F34F
:1010E0000E94A210E1CFF80182818823E9F20E94D8
:1010F0004920827259F00E944410D6CFF8018281B3
:10110000882391F20E9449208272A9F30E943A102A
:10111000CBCF882349F20E94620FC6CF882321F2E9
:101120000E947A0FC1CF882309F4BECF0E94AB0F73
:10113000BBCF882309F4B8CF0E94BD0FB5CF882359
:1011400009F4B2CF0E94D50FAFCFF8018281882376
:1011500009F4AACF0E944D0EA7CF882309F4A4CF8B
:1011600081E00E943710A0CF882309F49DCF0E9410
:101170002A0E623071058105910538F00E942A0E11
:10118000653071058105910508F282E0EACF882378
:1011900009F48ACF0E942A0E6930710581059105F4
:1011A00040F00E942A0E6E3071058105910508F409
:1011B000ADCF89E0D6CF882309F476CF0E942A0EDE
:1011C0006F3071058105910540F00E942A0E64314F
:1011D00071058105910508F499CF8FE0C2CF88236E
:1011E00009F462CF0E942A0E6531710581059105CF
:1011F00040F00E942A0E673171058105910508F4BF
:1012000085CF85E1AECFF8018281882309F44CCFE8
:101210000E942A0E693171058105910540F00E94F6
:101220002A0E623271058105910508F46FCF89E1BC
:1012300098CF882309F438CF83E293CFF8018281D5
:10124000882309F431CF82E027CFF80182818823F7
:1012500009F46DCE0E94D220811102C00E9440216B
:101260000E94E52090E09093AA038093A903FE01D9
:10127000E350FC458091A9038160E231F10538F427
:10128000E451FE4C0C948F318091A90382608093CD
:10129000A9038091A9030E94E9200E944D1A04CF5E
:1012A0008091A9038460F3CF8091A9038860EFCF78
:1012B0008091A9038061EBCF8091A9038062E7CF81
:1012C0008091A9038064E3CF8091A9038068DFCF78
:1012D0008091A9038C60DBCF8091A9038E7FD7CF4B
:1012E0008091A9038D7FD3CF8091A9038B7FCFCF2E
:1012F0008091A903877FCBCF8091A9038F7EC7CF31
:101300008091A9038F7DC3CF8091A9038F7BBFCF2D
:101310008091A9038F77BBCF8091A903837FB7CF3B
:101320009091A903892F97FB87F98058B0CF882324
:1013300061F010924B020E945122909348028093D8
:10134000470282E00E945917AFCE0E94492085FFD4
:1013500009C081E080934B0280934C0282E00E949E
:101360006017A2CE80914B028111F8CF8091470285
:10137000909148020E945D22883C910578F786E2B0
:101380000E94161686E20E940317E8CF0E944920A9
:1013900081FF07C081E080934B0280934C0280E282
:1013A000DECF80914C028111FACF80914902909159
:1013B0004A020E945D22883C910588F787E20E94DC
:1013C000161687E20E940317EACFF8018281811185
:1013D00047CE80914C028111E2CF809149029091D9
:1013E0004A020E945D22883C9105C8F680E20E9474
:1013F000601788E20E94161688E20E94031754CEF6
:1014000085E3C1CD80914602811104C089E20E942A
:10141000D91FBBCD85E3FBCF0895972F70E026E061
:10142000929F600D711D1124FB0194E5899FE00DD1
:10143000F11D1124EE0FFF1FEE50FF4F8591949187
:101440000895FC01EE0FFF1FEE56FC4F859194911D
:101450000895CF93DF930E940D0A0E94E50BEC01E3
:10146000811520E5920708F042C0811530E493070A
:1014700008F018C1883E910528F5803E910508F0D6
:10148000A4C0883A910588F4853A910508F093C084
:101490008130910509F499C0009709F496C004972A
:1014A00008F093C0D0E0C0E090C08F3B910508F4F5
:1014B00090C0805C9109C03CD105A0F30E94210A34
:1014C000EC0183C08115904250F4C11581E0D8072A
:1014D00008F07BC0C03FD10528F3D06576C0C115A8
:1014E00090E3D90708F0D4C0CE019F70E7CF8115F3
:1014F00025E5920758F5811534E5930708F001C1F9
:10150000811542E5940750F4C11581E5D80708F428
:10151000CCC0DC2FCC27C16FD06A57C0982F9695CE
:1015200096959E0123703327C115D34508F0DAC084
:10153000C1E0D0E002C0CC0FDD1F2A95E2F720E227
:10154000929FC0011124C82BD92BCAC0C1158AE5AE
:10155000D807A0F4C11599E5D90708F0DDC0C11579
:1015600026E5D20708F4D2C0C11538E5D30708F440
:1015700099CFDC2FCC27C06FD06A27C0C1154BE5AF
:10158000D40708F48FCFC1158CE5D80708F4CFC075
:10159000CE0190568115904208F084CF8D2F8F7127
:1015A0000E94600C90E0982F882788279F719C01EB
:1015B0002C2BE901AFC0853A910509F4BBC0863AEE
:1015C000910509F0BAC0C2E8D0E4CE01DF91CF9115
:1015D0000895883A910509F4B3C0893A910509F450
:1015E000B2C08A3A910509F4B1C08B3A910509F469
:1015F000B0C08C3A910509F4AFC08B3B910509F45A
:10160000AEC08C3B910509F4ADC08D3A910509F44B
:10161000ACC0803B910509F4ABC08E3A910509F44A
:10162000AAC08F3A910509F4A9C0813B910509F43C
:10163000A8C0823B910509F4A7C0833B910509F43A
:10164000A6C0843B910509F4A5C0853B910509F42A
:10165000A4C0863B910509F4A3C0873B910509F41A
:10166000A2C0883B910509F4A1C0893B910509F40A
:10167000A0C08D3B910509F49FC08E3B910509F4F4
:101680009EC08A3B910509F49DC0C0E0D4E49DCF83
:10169000CE019927D3FF03C0EC01D86C96CFEC01A3
:1016A000D06C93CFDF70D06A90CFCE01E4E09695F6
:1016B0008795EA95E1F783702C2F26952695237060
:1016C00040E2249F90011124382B8C2F8370C1E0BD
:1016D000D0E002C0CC0FDD1F8A95E2F7C22BD32BDE
:1016E000DC6873CFC1E0D0E002C0CC0FDD1F2A95CB
:1016F000E2F730E2939FC0011124C82BD92BDA689E
:1017000064CFD82FCC27C46FD06A5FCFDC2FCC2713
:10171000CC27DF71D06259CFCE0134E09695879502
:101720003A95E1F78F70CF70C06ED82FBCCFDD2710
:10173000D0664BCFC1E8D0E448CFC3E8D0E445CF72
:10174000C2EED4E442CFC9EED4E43FCFCAEED4E433
:101750003CCFC5EBD4E439CFC6EBD4E436CFC3EBF2
:10176000D4E433CFC4EBD4E430CFC7EBD4E42DCFF3
:10177000CCECD4E42ACFCDECD4E427CFC3E8D5E435
:1017800024CFCAE8D5E421CFC2E9D5E41ECFC4E90D
:10179000D5E41BCFC1E2D6E418CFC3E2D6E415CF1F
:1017A000C4E2D6E412CFC5E2D6E40FCFC6E2D6E457
:1017B0000CCFC7E2D6E409CFCFE6D4E406CFC0E72A
:1017C000D4E403CFCAE2D6E400CF8238910549F1D0
:1017D000B0F48133910509F462C048F4893291056F
:1017E00009F456C08A32910509F460C00895853322
:1017F000910509F446C08933910599F00895833E17
:10180000910531F138F4803E910591F0823E9105C9
:10181000B1F00895863E910521F1873E910551F181
:1018200008952091A9032370D9F080EE90E00895E7
:101830002091A90320FF14C089E390E0089520912E
:10184000A90322FF0DC024FD09C083EE90E0089596
:101850002091A90322FD31C024FF02C090E080E066
:1018600008952091A90323FFFBCF24FDF7CF87EE36
:1018700090E008952091A90323FFEECF86EE90E03B
:1018800008952091A90325FFEBCF89E290E0089508
:101890002091A90325FFE4CF85E390E008952091EE
:1018A000A90326FFDDCF8AE290E008952091A903E5
:1018B00026FFD6CF81E390E0089582EE90E0089570
:1018C0009091A90392FF06C0282F2871283069F44F
:1018D000877F846093FF06C0282F2871283161F428
:1018E000877E846194FD877E0895282F247124309B
:1018F00089F78B7F8860EECF282F2471243191F7F0
:101900008B7E8861EFCFCF93DF93EC01C13080E80D
:10191000D80770F0FB018281882351F00E949C0C53
:101920000E94AA0CCE019F770E94760D0E94270D7F
:1019300081E0DF91CF91089580914D02811109C01E
:101940008CE090E00E94A23180934E0281E080936F
:101950004D020895E0910F01F09110018081809374
:10196000610381FF03C081EE0E9403178091610330
:1019700085FF03C085EE0E9403178091610380FFFD
:1019800003C080EE0E9403178091610384FF03C0AF
:1019900084EE0E9403178091610382FF03C082EEF0
:1019A0000E9403178091610386FF03C086EE0E94A8
:1019B00003178091610383FF03C083EE0E94031726
:1019C0008091610387FF03C087EE0E940317809117
:1019D0004E02823049F158F4882379F0813089F041
:1019E0008FE39CE90197F1F700C00000089584306F
:1019F00019F18530A9F786EE01C082EE0E94161615
:101A0000EFCF80EE0E94161681EE0E94161688E136
:101A10000E94161688E10E94031781EE0E940317A8
:101A200080EE0E940317DCCF82EE0E94161687E537
:101A30000E94161687E5F5CF86EE0E94161686EEF2
:101A40000E94031788E10E94161688E1EACF809170
:101A50004E02813009F444C08823E1F18230D1F193
:101A60008530E1F18091610381FF03C081EE0E9426
:101A700016168091610385FF03C085EE0E9416163D
:101A80008091610380FF03C080EE0E941616809152
:101A9000610384FF03C084EE0E94161680916103E7
:101AA00082FF03C082EE0E9416168091610386FFBA
:101AB00003C086EE0E9416168091610383FF03C067
:101AC00083EE0E9416168091610387FF0EC087EE99
:101AD0000C94161682EE0E940317C4CF86EEFBCF3D
:101AE0008CE20E9416168CE2F6CF0895EF92FF92D8
:101AF0001F93CF93DF937C01CCE0D0E0C7010C2E85
:101B000002C0969587950A94E2F7182F1F70812FCF
:101B10000E9424070E941616812F0E9424070E940B
:101B200003172497CC3F8FEFD80741F7DF91CF9170
:101B30001F91FF90EF900895CF92DF92EF92FF9266
:101B40000F931F93CF93DF93E901662309F466C0D7
:101B5000E42EF12CEFEFF0E0E61BF109EE9D8001A1
:101B6000EF9D100DFE9D100D1124212FE12FFF2759
:101B7000EE1AFF0A5CE3C52ED12CB6010E94673134
:101B8000FB01BC01E69EC001E79E900DF69E900D04
:101B90001124B6010E946731E230F10589F168F441
:101BA000812F262F210F309781F0242F461B31974C
:101BB00061F080E020E040E008C0E430F10551F140
:101BC00028F1842F861B3597A1F7E42FF0E0E2552A
:101BD000FC4F4491E22FF0E0E255FC4F9491E82F46
:101BE000F0E0E255FC4FE49149839883EA83DF916A
:101BF000CF911F910F91FF90EF90DF90CF900895BC
:101C0000862F810FE42F412F2E2FDFCFE42FE61BED
:101C1000842FF9CF842F462F410FD7CF842F242F25
:101C2000D4CF88E090E00C94AA31AB01BC0188E0ED
:101C300090E00C94C831E2E6F3E083E08083118207
:101C40008FEF82838383148260817181828193818B
:101C50000C94150E6091620360FF06C066956F7369
:101C600070E090E080E0089560E070E0CB010895BE
:101C70008091660390E001968430910514F083E032
:101C800090E080936603609162037091630380919A
:101C90006403909165030C94150E80916603815046
:101CA000990B97FF02C090E080E08430910514F01A
:101CB00083E090E080936603609162037091630318
:101CC00080916403909165030C94150E80916203DA
:101CD000E7E6F3E080FF06C06FE070E087E693E0A0
:101CE0000C942F14118210821282349683E0E33A0E
:101CF000F807C1F7F1CF9091620390FF0CC0E7E6BF
:101D0000F3E0818360834283349693E0E33AF907FA
:101D1000C1F70C94660E0895CF93DF9300D000D0E6
:101D2000CDB7DEB72091620320FF0AC09E012F5F6E
:101D30003F4F0E949C0D4B8169818A810E947B0EDE
:101D40000F900F900F900F90DF91CF9108955F92B9
:101D50006F927F928F929F92AF92BF92CF92DF92BB
:101D6000EF92FF920F931F93CF93DF9300D000D099
:101D7000CDB7DEB78C01E62EF42E522E8091620391
:101D800080FF30C0982F9E77923009F03FC09E01AF
:101D90002F5F3F4FC8010E949C0D4B8169818A8152
:101DA0000E947B0E8091620300FB87F9809362039F
:101DB000902F9695809163038078892B10FB87F98B
:101DC00080936303E0926403F0926503552051F021
:101DD0006091620370916303809164039091650345
:101DE0000E94150E0F900F900F900F90DF91CF91E2
:101DF0001F910F91FF90EF90DF90CF90BF90AF9029
:101E00009F908F907F906F905F900895E82FE69558
:101E1000EF739EE39E0F9F73943018F4F090650368
:101E2000C1CF9AE39E0F9F73993068F4881F88276B
:101E3000881F90916303292F220F022F082B97FBF5
:101E4000112710F9AFCF87E28E0F8F738A3008F019
:101E5000A9CFE951FF0B21E0E0FD2FEFEE7FEC551C
:101E6000FC4F859194916FE070E00E9467312603EA
:101E70004001279F900C1124580188E9A81A8EEF81
:101E8000B80A87E6C82E83E0D82E98E6692E772414
:101E90007394C501B3010E94673196014F2D6E2DD9
:101EA0000E949C0DA80CB91C84E0C80ED11C83EACA
:101EB000C81683E0D80669F70E94660E73CF21E04A
:101EC0000C94A70EE2E6F3E02081221F2227221FB6
:101ED00030916303432F440F842F822B37FB9927C4
:101EE00090F90C9668E671E00E947B314381628133
:101EF0000C945F0F20916203221F2227221F309132
:101F00006303432F440F842F822B37FB992790F9CB
:101F10008C30910540F4845A9E4F40916503609146
:101F200064030C945F0F0C9768E671E00E947B31AC
:101F3000F4CFE2E6F3E08081881F8827881F909124
:101F40006303292F220F97FB992790F943816FEFA5
:101F5000822B0C945F0FE2E6F3E08081881F8827D4
:101F6000881F90916303292F220F97FB992790F9DF
:101F7000438160E0822B0C945F0F40916503443FE6
:101F800090F4445F80916203881F8827881F909196
:101F90006303292F220F97FB992790F9609164031F
:101FA000822B0C945F0F4FEFEDCF409165034C30C7
:101FB00090F04C5080916203881F8827881F909171
:101FC0006303292F220F97FB992790F960916403EF
:101FD000822B0C945F0F40E0EDCF20E00C94A70E15
:101FE000CF939091620390FF40C09178811131C0EE
:101FF000926090936203662351F060916203709146
:10200000630380916403909165030E94150EC09153
:1020100062036C2F66956F7370E04BE050E084E0D4
:1020200091E00E949531892BE1F010926C02CC1F57
:10203000CC27CC1F90916303892F880F97FB99279A
:1020400090F940916503609164038C2BCF910C94BF
:10205000ED0F853210F09864CCCF8F73880F982BDA
:10206000C8CF81E080936C02E2CFCF91089561E008
:102070000C94F00F8091620386958F738F5F853289
:1020800008F081E00C9437108091620386958F737D
:10209000815009F484E20C943710E2E6F3E0808189
:1020A0008160808386958F730C94371060E00C9468
:1020B000F00F80912F03816080932F030E94D22024
:1020C000811104C00E9440210E941B0E0E94110E2B
:1020D000609362037093630380936403909365033A
:1020E0006E7761F40E941B0E0E94110E60936203D2
:1020F00070936303809364039093650381E08093FE
:102100006C028091620380FF04C086958F730C94EB
:1021100056100895E2E6F3E080818E7F808360812F
:102120007181828193810E94150E10926C022FEFB3
:1021300080E792E0215080409040E1F700C000002D
:102140000C94660E8091620380FD0C948A100C94AE
:102150004D10CF93C82F80916A0290916B020E941C
:102160005D22EC2FF0E0E056FC4FE491E8171906F1
:1021700011F008F042C00E94512290936B028093AC
:102180006A026091690270E090E080E00E94682F2E
:1021900020E030E04FE753E40E948B2E2BED3FE030
:1021A00049E450E40E9491300E94FE300E94052FC5
:1021B0002BE43AE34EE25FE30E941E2E20EF3BEF5A
:1021C00048ED52E40E9491300E94372F462F8091B3
:1021D0006203881F8827881F90916303292F220F8D
:1021E00097FB992790F960916403822B0E948C0ED3
:1021F000809169028F5F80936902CF910895CF9398
:10220000C82F80916702909168020E945D22EC2F96
:10221000F0E0E356FC4FE491E817190609F0E8F402
:102220000E94512290936802809367024091650357
:102230006091640380916502909166020E948C0E09
:102240008091650290916602019668E671E00E94B5
:1022500067319093660280936502CF910895CF9283
:10226000DF92FF920F931F93CF93DF93F82E80910D
:102270006302909164020E945D22EF2DE695F0E0EA
:10228000E656FC4FE491E817190609F0A8F50E94FC
:102290005122909364028093630207E613E0D0E03A
:1022A000C0E088E6C82EDD24D3948091610290912D
:1022B00062028C0F9D1FB6010E9467319801409108
:1022C0006503609164030E949C0D68960C5F1F4F2C
:1022D000C83681E0D80749F70E94660E80916102F6
:1022E00090916202F0FE10C00196BE010E9467311B
:1022F0009093620280936102DF91CF911F910F91C1
:10230000FF90DF90CF9008950197F2CFCF92DF92A8
:10231000EF92FF920F931F93CF93DF93C82FFF2469
:10232000FA9480FD02C0FF24F39480915F029091A3
:1023300060020E945D22C695EC2FF0E0E956FC4F4A
:10234000E491E817190611F008F051C00E945122DB
:102350009093600280935F0207E613E0D0E0C0E054
:10236000F80111821082128294E0C92ED12CE12C46
:1023700080915E028E0D87FD815F082E000C990B07
:102380008C179D07E9F4809165038C9DA0018D9DBC
:10239000500D1124559547955595479580916203A9
:1023A000881F8827881F90916303592F550F97FB2B
:1023B000992790F9980160916403852B0E949C0DE8
:1023C000EF0CF1E0CF1AD10899F621960C5F1F4F60
:1023D000CF30D10529F60E94660E80915E0291E011
:1023E000F91210C081110CC08EE080935E02DF9163
:1023F000CF911F910F91FF90EF90DF90CF900895B4
:102400008150F3CF90E00196BE010E947B31EDCF69
:102410000F931F93CF93DF93C82F80915C0290910D
:102420005D020E945D22EC2FF0E0EC56FC4FE4913F
:10243000E817190611F008F052C00E94512290933B
:102440005D0280935C02C7E6D3E0FE011182108238
:102450001282349683E0E33AF807C1F710E000E017
:1024600080915B02082E000C990B08171907E4F104
:1024700080910301082E000C990B80179107A4F19D
:1024800080916203881F8827881F90916303592FCA
:10249000550F97FB992790F99E0140916503609134
:1024A0006403852B0E949C0D0F5F1F4F24960F30F5
:1024B0001105B1F60E94660E8091020190915B02B7
:1024C000980F90935B0220910301280F2093030142
:1024D000121614F49E301CF0819580930201DF9156
:1024E000CF911F910F910895198218821A82DCCF23
:1024F000EF92FF920F931F93CF93DF938091590236
:1025000090915A020E945D22883E9340C8F10E9439
:10251000512290935A0280935902C0915702D09150
:1025200058022196C170DD27D0935802C0935702FC
:1025300087E6E82E83E0F82E10E008E7812F8695E5
:102540008C0F9D2F911D81709927970140916503F4
:1025500060916403FC010E9FC0010F9F900D112438
:102560000E949C0D1F5FF4E0EF0EF11C1F3031F74D
:10257000DF91CF911F910F91FF90EF900C94660E19
:10258000DF91CF911F910F91FF90EF900895CF931E
:10259000DF9300D000D0CDB7DEB780915502909187
:1025A00056020E945D22E2E9F3E025913491821700
:1025B0009307C0F18091540281110CC09E012F5FDE
:1025C0003F4F4FEF6FEF90E080E00E949C0D8A81BB
:1025D000809354020E945122909356028093550298
:1025E00080915302813071F0882339F040E08230CD
:1025F00011F44091540280E003C08091540240E005
:1026000060E004C06091540240E080E00E947B0ED4
:102610008091530290E0019663E070E00E947B316C
:10262000809353020F900F900F900F90DF91CF91F6
:1026300008950F931F93CF93DF9380915102909150
:1026400052020E945D22843F9140D8F10E945122A3
:102650009093520280935102C7E6D3E010E000E06D
:1026600040914F0250915002609164038091620347
:10267000282F221F2227221F90916303892F880F62
:10268000822B97FB992790F907301105FCF4452B15
:10269000F9F09E01409165030E949C0D0F5F1F4F52
:1026A00024960F301105E1F60E94660E80914F02CC
:1026B00090915002019681709927909350028093D7
:1026C0004F02DF91CF911F910F910895452B09F390
:1026D0009E0140E0E1CF80916C028823D1F190917E
:1026E0006203892F86958F732EE3280F2F73243072
:1026F00018F482500C94A9102AE3280F2F7323306A
:1027000018F486500C94FF1027E3280F2F732630FF
:1027100018F489500C942F1121E3280F2F732630C1
:1027200018F48F500C9486112BE2280F2F7323304E
:1027300018F485510C9408129E77903311F40C9480
:102740007812963411F40C94C712983411F40C9446
:10275000191308958823B9F05198599A5098589AA6
:1027600095E09A95F1F70000509A589895E09A955F
:10277000F1F70000882311F0519A599885E08A9565
:10278000F1F700000895519A5998E8CF8BB18C7FEA
:102790008BB95098589A5198599A85E08A95F1F7D3
:1027A000000008958AB18C7F8AB985E08A95F1F797
:1027B0000000519A599885E08A95F1F70000509AE7
:1027C000589885E08A95F1F7000008955098589A36
:1027D00085E08A95F1F700005198599A85E08A952D
:1027E000F1F700000895CF93DF93D82FC8E08D2F25
:1027F00080780E94AA13DD0FC150C9F780E00E94C3
:10280000AA1385E08A95F1F7000085E08A95F1F733
:10281000000080E0DF91CF9108953BB1242F2095F7
:1028200023233BB1432B3FB7F894680F791F8617DA
:10283000970711F43FBF0895FC015191CF01E8E0E3
:102840004BB9000000C057FF2BB9550F000000C066
:1028500000C000C02BB900C0EA9591F7E8CFAF9255
:10286000BF92CF92DF92EF92FF920F931F93CF937D
:10287000DF937C018B01CFB6D090BC00F89480919F
:10288000BC008B7F8093BC000E94C6130E94D213B1
:1028900084E80E94F313000F111F000F111F57014E
:1028A000A00EB11EE701CA15DB05A9F40E94E613CC
:1028B000CFBED092BC00579A40E8B801C701DF9163
:1028C000CF911F910F91FF90EF90DF90CF90BF902D
:1028D000AF900C940D1489910E94F313E4CF909360
:1028E0007202809371020895E0917102F091720278
:1028F000309721F00190F081E02D099480E0089557
:10290000E0917102F0917202309799F020912001CC
:10291000222359F02091A90327FF07C0DC012C9145
:1029200011962C93119725E02C930280F381E02DD2
:1029300009940895E0917102F0917202309739F094
:1029400022E0DC012C930480F581E02D09940895A8
:1029500020916F02309170022817390771F090931F
:10296000700280936F02E0917102F09172023097D1
:1029700021F00680F781E02D0994089520916D02E1
:1029800030916E022817390771F090936E02809390
:102990006D02E0917102F0917202309721F0008493
:1029A000F185E02D0994089585B7806885BF85B7C6
:1029B000806885BF089508950E94D4140C94DB1498
:1029C00081E008950E9448220E94A8030E94DD220F
:1029D0000C945910BF92CF92DF92EF92FF920F9317
:1029E0001F93CF93DF93CDB7DEB72A970FB6F89436
:1029F000DEBF0FBECDBF0E9477040E94E014882383
:102A000009F471C084E7C82E82E0D82E10E000E0FF
:102A1000B02E802F0E94B604E82EF601F1906F01CF
:102A2000F81609F45AC080912F0381FD0E94BC045E
:102A300090E080E0FE242F2D30E0482FB901082ED1
:102A400002C0759567950A94E2F760FF41C08E83D6
:102A5000BF8281E090E06C0102C0CC0CDD1C4A9585
:102A6000E2F72E2D30E02C213D21232B09F480E0CC
:102A700088870E9451228160782F9A8789874E81AA
:102A80005F8168858A850E94CC15F801EC58FD4F5E
:102A900080818C2580830E9466240E94741490910A
:102AA0007302891789F10E947414809373022A9625
:102AB0000FB6F894DEBF0FBECDBFDF91CF911F914F
:102AC0000F91FF90EF90DF90CF90BF900C9435075F
:102AD00001968630910509F0B0CF0F5F1F4F0E3081
:102AE000110509F095CF8FEF89838A831B820E949D
:102AF00051228160782F9D838C8349815A816B811B
:102B00008D810E94CC15C7CF2A960FB6F894DEBFF0
:102B10000FBECDBFDF91CF911F910F91FF90EF902E
:102B2000DF90CF90BF900895CF93DF93DC018C911D
:102B3000682F70E021E030E001C0220F8A95EAF7AB
:102B400011964C91119750E0EA01CE57DD4F9881D4
:102B500012968C9112978823C9F080919202882353
:102B6000C1F086E0849FF001859FF00D1124E60FEF
:102B7000F71FEE0FFF1FEF5DFE4F408151814D9318
:102B80005C93292B2883DF91CF910895892F82238D
:102B9000E6CF20952923F6CFCF93DF93CDB7DEB7CD
:102BA0002B970FB6F894DEBF0FBECDBF4F8358876B
:102BB00069877A878B878A859B85892B21F0CA0153
:102BC00089238F3FE1F41E821D8285E0FE01379646
:102BD000DE01119601900D928A95E1F749815A81A3
:102BE0006B817C818D819E810E94EB1C2B960FB6A0
:102BF000F894DEBF0FBECDBFDF91CF910895CE0117
:102C000007960E949415DFCFFC01808191810E947C
:102C1000A41F92959F70963041F48091920291E0AA
:102C2000892780939202909391020895CF93C82FA1
:102C3000882309F4E6C08238C1F40E94741481FD2F
:102C4000E0C089E30E94D21F0E9416202FEF81EE80
:102C500094E0215080409040E1F700C0000089E3FB
:102C60000E94D91FCF910C9416208338A1F40E94A2
:102C7000741480FDC6C083E50E94D21F0E941620F6
:102C80002FEF81EE94E0215080409040E1F700C0AA
:102C9000000083E5E5CF8438A1F40E94741482FD1E
:102CA000B0C087E40E94D21F0E9416202FEF81EE51
:102CB00094E0215080409040E1F700C0000087E49C
:102CC000CFCF8CEF8C0F813A48F48C2F0E94822654
:102CD000811197C08C2F0E94D21FC4CF80E28C0F2D
:102CE000883048F4C77081E001C0880FCA95EAF7C0
:102CF0000E944C20B7CF8BE58C0F833068F481E8BD
:102D000090E0C53A31F083E890E0C63A11F482E8E9
:102D100090E0CF910C94A81488E58C0F873108F0CF
:102D200068C082EE90E0C83A09F460C089EE90E095
:102D3000C93A09F45BC08AEE90E0CA3A09F456C079
:102D400085EB90E0CB3A09F451C086EB90E0CC3AA9
:102D500009F44CC083EB90E0CB3B09F447C084EB13
:102D600090E0CC3B09F442C087EB90E0CD3AF1F122
:102D70008CEC90E0C03BD1F18DEC90E0CE3AB1F11B
:102D800083E891E0CF3A91F18AE891E0C13B71F19B
:102D900082E991E0C23B51F184E991E0C33B31F11A
:102DA00081E292E0C43B11F183E292E0C53BF1F095
:102DB00084E292E0C63BD1F085E292E0C73BB1F0FD
:102DC00086E292E0C83B91F087E292E0C93B71F065
:102DD0008FE690E0CD3B51F080E790E0CE3B31F0C4
:102DE00090E080E0CA3B11F48AE292E0CF910C942B
:102DF000BE14C03F30F08C2F0E947423CF910C94EE
:102E00005B24CF910895882309F452C0823871F46D
:102E10000E94741481FF4CC089E30E94D21F0E945B
:102E2000162089E30E94D91F0C941620833859F488
:102E30000E94741480FF3CC083E50E94D21F0E9450
:102E4000162083E5EFCF843859F40E94741482FF72
:102E50002FC087E40E94D21F0E94162087E4E2CF91
:102E60009CEF980F913AF0F290E2980F983050F45E
:102E7000877091E001C0990F8A95EAF7892F0E9427
:102E80005220D2CF9BE5980F933020F490E080E061
:102E90000C94A81498E5980F973120F490E080E006
:102EA0000C94BE14803F20F00E94DC230C945B2421
:102EB0000895882321F00E944C200C941620089538
:102EC000882321F00E9452200C94162008958F929E
:102ED0009F92AF92BF92CF92DF92EF92FF920F93A9
:102EE0001F93CF93DF937C01D62FC72FFC01058161
:102EF00002950F70128111110E9469200E940F200B
:102F0000C82E882371F01123B1F080E28D0F883034
:102F100090F082E00E94F91F0E940F2091E0C82EDD
:102F2000C926DC2ED2949FE0D922ED2DF0E0E250AC
:102F3000FE4C0C948F31C12CF4CF0C2F0F70C07F3E
:102F400011F00295007F1123A9F0002359F080E2CF
:102F50008D0F883010F0D11109C0802F0E944C20B5
:102F60000E9416208D2F0E94161614C0802F0E94DA
:102F70005C20F6CF8D2F0E940317002359F080E2CA
:102F80008D0F883010F0D11133C0802F0E94522055
:102F90000E941620F8E0DF1639F0DF1648F086EFC1
:102FA0008D0D8F70823020F40E9474140E943507BA
:102FB000CC2009F427C20E94EC1F80FD23C2F70138
:102FC00012820E94E61F0E946F1EC7010E940F1A04
:102FD0000E94E61FDF91CF911F910F91FF90EF901C
:102FE000DF90CF90BF90AF909F908F900C94901EE9
:102FF000802F0E946220CCCFFC2FFF70BF2EC07F9D
:10300000C03219F0B29480EFB822DD2339F0D1300C
:1030100019F1112359F1002321F1A4CF112381F0DB
:10302000011106C00E9482208B290E945917B2CF3D
:103030000130C1F70E9482208B290E947C20AACFF8
:10304000011106C00E947F208B2D0E946017A2CF25
:10305000013009F49FCFF6CF112329F0023008F098
:1030600099CF8B2DE2CF011195CFEECF002361F3E5
:103070008D2F0E9403178ECF8C2F86958695837097
:1030800069F0813009F086CF8D2F9C2F937011113C
:1030900002C090E080E00E94BE147CCF8D2F9C2F58
:1030A0009370111102C090E080E00E94A81472CFCA
:1030B000112309F1D53F99F0D63FB9F0D43F49F437
:1030C0008091A3039091A40381609093A4038093C3
:1030D000A3038D2F0E9474230E945B245BCF8091F9
:1030E000A3039091A4038260F0CF8091A3039091F9
:1030F000A4038460EACFD53F89F0D63FA9F0D43F3E
:1031000049F48091A3039091A4038E7F9093A4032C
:103110008093A3038D2F0E94DC23DECF8091A30335
:103120009091A4038D7FF2CF8091A3039091A4038B
:103130008B7FECCF8C2F837009F047C011112ACF01
:103140002D2F229526952770220F220F6D2F6F703D
:10315000862E912CB12CA12C022E04C0880C991C17
:10316000AA1CBB1C0A94D2F760E070E0CB01D4FF2C
:103170000FC06FE070E080E090E004C0660F771F42
:10318000881F991F2A95D2F7609570958095909524
:10319000C695C695C370C23051F080F4682979296C
:1031A0008A299B29C13071F00E94211EF3CE682923
:1031B00079298A299B290E94331EECCE0E94211E68
:1031C000C501B4010E940F1EE5CE8695112311F0B2
:1031D0008C2F8170882309F4DDCE2D2F2295269522
:1031E0002770220F220F6D2F6F70862E912CB12C1D
:1031F000A12C022E04C0880C991CAA1CBB1C0A948A
:10320000D2F760E070E0CB01D4FF0FC06FE070E058
:1032100080E090E004C0660F771F881F991F2A95F1
:10322000D2F76095709580959095C695C695C370B8
:10323000C23051F080F4682979298A299B29C1304C
:1032400071F00E94E61EA6CE682979298A299B2959
:103250000E94F81E9FCE0E94E61EC501B4010E9486
:10326000D41E98CEE0E2ED0FE53108F04CC0F0E05E
:10327000E25FFD4C0C948F31DF708C2F8F71112326
:1032800021F00E946F1E8D2FD0CE0E94901E8D2F98
:10329000DCCE112339F001117DCE8C2F8F710E946D
:1032A000B31E78CE023008F075CEF7CF8C2F8F7119
:1032B000112339F00E946F1E6DCE8C2F8F71112358
:1032C000C9F30E94901E66CE112329F08C2F8F71B6
:1032D0000E945A1E5FCE0E94551E5CCE112349F0FB
:1032E000CF718C2F0E946F1E63E08C2F0E94F01F05
:1032F00051CE81E00E94F91F023008F44BCE82E0EB
:103300000E94F91F47CE112329F001112BCE8C2FDB
:103310008F71D0CF002369F0D93309F0A9CE2FEFF8
:1033200087EE93E0215080409040E1F700C000001C
:103330009FCE8C2F8F71C5CF4C2F4F706D2FC70133
:103340000E9494060E94851D25CED23F71F1C8F4DB
:10335000D03F01F1D13FB9F180919102002309F4EE
:1033600046C0882341F08091920291E089278093A2
:103370009202109291028D2F112389F10E9416164C
:1033800016C0D43FD9F078F0D53F31F711110FC0F6
:1033900081E006C0112359F08091920291E08927C3
:1033A0008093920204C081E01827109392024C2F60
:1033B0004F706D2FC7010E940C0AECCD1111F7CF91
:1033C00010929202F4CF112339F080919102882358
:1033D00019F310929102EBCF0023F1F2E8CF0E9493
:1033E000031786E0F70111928A95E9F7E0CF882369
:1033F000F1F21111DCCF8091920291E08927809344
:103400009202E7CFDF91CF911F910F91FF90EF9044
:10341000DF90CF90BF90AF909F908F9008950F93C3
:103420001F93CF93DF93EC018B819C81892B29F033
:103430008881998189238F3F29F4DF91CF911F9152
:103440000F910895CE010E9447078823B1F3688148
:1034500079818A810E94AE1F8C010E940A1F0E94FE
:103460000C1EB801CE01DF91CF911F910F910C94EA
:1034700067170E9469200E9479200E94E01F0E9425
:1034800016200E94F9240E945B2490E080E00E94B4
:10349000A81490E080E00C94BE140E9459200C9473
:1034A000391A0E94A41FE92FE295EF70E250EE3026
:1034B00070F4F0E0ED5DFD4C0C948F31803F19F01D
:1034C00020F4803E20F481E00895843FE1F380E021
:1034D0000895803EC0F3813FD1F7F5CF93FB882755
:1034E00080F90895CF93DF9300D000D00F92CDB72D
:1034F000DEB70F900F900F900F900F90DF91CF914C
:103500000895CF93DF9300D000D000D0CDB7DEB7C1
:1035100026960FB6F894DEBF0FBECDBFDF91CF91D8
:1035200008951F93CF93DF93C091930216E080918B
:1035300094028C1304C0DF91CF911F910895D0E0C5
:103540001C9FF0011D9FF00D1124EB56FD4F408193
:10355000518162817381848195810E94811A2196B3
:10356000C770E5CF4091C5025091C6026091C70275
:103570007091C8028091C9029091CA020C94811A7C
:103580001F93CF93DF938091CA02807FC1F4809113
:10359000C7028823A1F080919302C09194026091A8
:1035A000C5027091C6024091C8025091C902D62F3F
:1035B000D723DA01A095B09516E0C81304C0DF91B7
:1035C000CF911F91089590E04115510511F0DF3F13
:1035D00031F401968770F1CF2A0F3B1F17C0189F57
:1035E000F001199FF00D1124EB56FD4F2181271397
:1035F000F0CF20812613EDCF22812111EACF238144
:1036000034812417350740F3241B350B283C310542
:1036100000F72091CA022F7020612093CA0226E091
:10362000289FF001299FF00D1124E656FD4F80815F
:103630008F708061808385EC92E00E940F1ADF9189
:10364000CF911F910C94911ABF92CF92DF92EF927B
:10365000FF920F931F93CF93DF93CDB7DEB76197A0
:103660000FB6F894DEBF0FBECDBF8C0185E0F80128
:10367000DE011D9601900D928A95E1F7D8014C91DB
:1036800011965C9111971296EC9012978091C80256
:103690009091C902009709F47FC12091C502309131
:1036A000C602622F63236F3F09F476C11396CD9053
:1036B000DC90B090C702BB2009F411C1C816D9062E
:1036C000D0F1F601E81BF90BCF01FF24F394883CFD
:1036D000910508F0F12C8091CA02982F907FFF206D
:1036E00009F4B8C091117FC0FE2C351329C02413F2
:1036F00027C0E11025C08F7080618093CA020E94AC
:10370000B21A85EC92E00E940F1A8091CA02D80189
:1037100015968C938F2D61960FB6F894DEBF0FBE71
:10372000CDBFDF91CF911F910F91FF90EF90DF9070
:10373000CF90BF900895809590958C0D9D1DC5CF1D
:10374000CD2829F0852F84238F3F09F041C180E0E7
:10375000B82FB170DB2E80FF3CC080919302209186
:10376000940236E0821315C04D875E878D859E8555
:103770000E94A41F292F22952F702230F0F02430B0
:1037800018F59F70F1F0F8019581907FD1F4D12C5C
:103790001EC090E0389FF001399FF00D1124EB56C8
:1037A000FD4F6181651306C06081641303C06281AF
:1037B000E6120FC001968770D5CF9F7011F0882355
:1037C00031F3805E883018F3C8010E940F1AFD2C77
:1037D000A1CFEE2009F49ECF8091CA028160809330
:1037E000CA02F12C97CF351306C0241304C0D801A8
:1037F000EE2009F49AC04D875E878D859E850E94D4
:10380000511A882319F1EE2009F18091CA02803201
:1038100070F02091C5023091C60238872F83198637
:10382000DB86CA868C87CE0107960E940F1A86E037
:10383000F801A5ECB2E001900D928A95E1F70E94A3
:10384000C01A0E94B21AFF24F39464CFC8010E94E8
:103850000F1AF9CF911113C07C2DD98AC88A6E2D09
:1038600089890E94721A85EC92E00E940F1A86E004
:10387000E5ECF2E0DF011D928A95E9F763C03513AC
:1038800012C0241310C0E1100EC0F8018583C801D6
:103890000E940F1AE5ECF2E086E0DF011D928A95A6
:1038A000E9F7FB2C37CF4D875E878D859E850E947B
:1038B000511A882359F2EE2049F28091CA028032CF
:1038C00008F4B5CF2091C5023091C6023A8329830E
:1038D0001B82DD82CC828E83CE010196A6CFC816D4
:1038E000D90698F1F601E81BF90BCF01F12C883CC1
:1038F000910508F049C0FE2CEE2009F4A7CF35133E
:1039000032C0241330C08091CA0280FD23C0982F9A
:10391000907F01F1D80115968C931597903F39F05F
:10392000982F907F905F8F70892B15968C93C8018C
:103930000E940F1A86E0F801A5ECB2E001900D920A
:103940008A95E1F70E94B21AE5CE809590958C0D8C
:103950009D1DCCCF86E0F801A5ECB2E001900D9260
:103960008A95E1F7D7CE4D875E878D859E850E942B
:10397000511A81115CCF8091CA0281608093CA0282
:10398000C8010E940F1AC6CE7C2DD98AC88A6E2D16
:1039900089890E94721A6BCFEE2009F457CF4D87A8
:1039A0005E878D859E850E94511AF82E882309F422
:1039B0004DCF86E0F801A5ECB2E001900D928A951A
:1039C000E1F785EC92E00E9404160E94C01ABACF7B
:1039D00081E08E25BDCE1F93CF93DF93CDB7DEB7A9
:1039E0002C970FB6F894DEBF0FBECDBF4F8358871C
:1039F00069877A878B879C87CE0107960E94241B54
:103A0000882369F08A859B85892B39F04F815885F9
:103A1000842F85238F3F09F071C016E05FC086E0D8
:103A2000FE013796DE01119601900D928A95E1F71D
:103A30008A859B85892B89F388859F8189238F3F80
:103A400061F32091940230E0C901019687709927B3
:103A5000409193024817190671F40E944D1A109272
:103A600094021092930286E0E5ECF2E0DF011D92F1
:103A70008A95E9F7D2CF96E0929FD001939FB00D3F
:103A80001124AB56BD4FFE01319601900D929A95CF
:103A9000E1F7809394020E94911ABFCF819FC001E9
:103AA00011248B569D4F0E94241B8823E9F0E0913E
:103AB00093021E9FF0011124EB56FD4F408151816E
:103AC00062817381848195810E94811A8091930221
:103AD00090E00196877099278093930280919302DA
:103AE000909194028913DACF2C960FB6F894DEBF2A
:103AF0000FBECDBFDF91CF911F91089569857A8563
:103B00008B859C850E94811A88CFEF92FF920F933C
:103B10001F93CF93DF938C01892B81F0F12CEE243E
:103B2000E394E8012196F8018491843770F484309D
:103B300008F05FC08130B1F08230A1F1DF91CF9108
:103B40001F910F91FF90EF900895853709F44CC0B5
:103B500008F43DC09CE7980F903780F78F770E945C
:103B6000031749C00E5F1F4FFE01849190E2980F2A
:103B7000983060F48770FE2D01C0FF0F8A95EAF738
:103B80008F2F0E946C200E94162002C00E941616E1
:103B90008F2D815030F2EFE9FFE03197F1F700C04F
:103BA0000000F7CF0E5F1F4FFE01849190E2980F47
:103BB000983050F48770FE2D01C0FF0F8A95EAF708
:103BC0008F2F0E947220DFCF0E940317E1CF0E5F7C
:103BD0001F4FFE01C491C150D8F28FE99FE00197B9
:103BE000F1F700C00000F7CF0E5F1F4FFE01F49009
:103BF000CFCF0E9416168E01CBCF08950C94FD1DD9
:103C00000E94FE1D609306037093070380930803D0
:103C1000909309030C94391A08950C94001E0F9385
:103C20001F93009106031091070320910803309120
:103C30000903602B712B822B932B1F910F910C94F6
:103C4000001E0F931F93009106031091070320910C
:103C500008033091090360237123822393231F916A
:103C60000F910C94001E0F931F9300910603109167
:103C700007032091080330910903602771278227E9
:103C800093271F910F910C94001E0C94FD1D0C9412
:103C9000451E0E94471E60930203709303038093A6
:103CA0000403909305030C94391A60E070E0CB0193
:103CB0000C94491E0F931F9341E050E060E070E0C8
:103CC0008A019B0104C0000F111F221F331F8A9518
:103CD000D2F7C901B8011F910F910C94491E0F939F
:103CE0001F9341E050E060E070E004C0440F551FB6
:103CF000661F771F8A95D2F7809102039091030384
:103D0000A0910403B09105038A019B01082B192B94
:103D10002A2B3B2BC901B8011F910F910C94491E0E
:103D20000F931F9341E050E060E070E004C0440F47
:103D3000551F661F771F8A95D2F7CB01BA01609590
:103D40007095809590950091020310910303209146
:103D500004033091050360237123822393231F9171
:103D60000F910C94491E0F931F9341E050E060E0C7
:103D700070E004C0440F551F661F771F8A95D2F765
:103D80008091020390910303A0910403B091050375
:103D90008A019B01082719272A273B27C901B80157
:103DA0001F910F910C94491E0F931F9300910203D2
:103DB000109103032091040330910503602B712BB4
:103DC000822B932B1F910F910C94491E0F931F93DD
:103DD0000091020310910303209104033091050325
:103DE00060237123822393231F910F910C94491E0A
:103DF0000F931F930091020310910303209104037A
:103E00003091050360277127822793271F910F9117
:103E10000C94491E0895E92FEE0FE90FEE0F8E0F57
:103E2000982F977041E001C0440F9A95EAF7869564
:103E30008695869595E0899FF0011124E553FD4F05
:103E400030E020E070E05191DF011197CB01022EAC
:103E500002C0969587950A94E2F78170819585272F
:103E6000842385278C932F5F3F4F2530310559F7E9
:103E70000895E92FEE0FE90FEE0F8E0F982F977030
:103E800086958695869525E0829FF0011124E5535D
:103E9000FD4F50E040E080E0219130E0092E02C06B
:103EA000369527950A94E2F721703327042E01C036
:103EB000220F0A94EAF7822B4F5F5F4F453051057E
:103EC00059F70895BF92CF92DF92EF92FF920F932E
:103ED0001F93CF93DF938C01C0900203D090030314
:103EE000E0900403F090050380910603909107038E
:103EF000A0910803B0910903C82AD92AEA2AFB2A0B
:103F0000CFE1D0E0BC2ED701C6010C2E04C0B6957F
:103F1000A795979587950A94D2F780FD0EC02197B3
:103F200088F7B12C8B2DDF91CF911F910F91FF90CE
:103F3000EF90DF90CF90BF900895B8018C2F0E9432
:103F4000290A019761F3EECFCF93DF93EC010E9432
:103F5000621FBE01DF91CF910C94290A1F93CF936A
:103F6000DF93EB0190919002992331F0CB01DF9127
:103F7000CF911F910C94A41F882379F0CB010E944C
:103F8000621F182F682FCE010E940B1FBE01812FC8
:103F9000DF91CF911F910C94290ACB010E94391F08
:103FA000182FF4CF682F80910F01909110010C947D
:103FB000A621682F80910F01909110010C94B121DE
:103FC00080910F01909110010C94BC2180910A0303
:103FD000859585958595089580910A038770089544
:103FE00098E0899F90011124622B60930A030C943E
:103FF0006F1E90910A038095892380930A03282FCE
:10400000277061F4282F082E000C330B921713062B
:1040100029F08595859585950C94901E089590912D
:104020000A03977081E009F480E00895E0910F01A0
:10403000F091100180912E038083E0910F01F091A7
:104040001001808190912D03892B8083E0910F01D5
:10405000F0911001808190912C03892B80839091A5
:104060000B03992381F0E0910F01F0911001808101
:10407000892B808380910F01909110010E94422131
:10408000811110920B0380910F01909110010C94FB
:10409000801480912E03089590912E03892B809394
:1040A0002E030895809590912E03982390932E03CC
:1040B000089510922E03089590912D03892B8093DB
:1040C0002D030895809590912D03982390932D03AF
:1040D000089510922D03089590912C03892B8093BD
:1040E0002C030895809590912C03982390932C0392
:1040F000089510922C03089580930B030895109255
:104100000B03089580910B030895CF92DF92EF92F5
:10411000FF926C01EE24FF2420E0C114D104E104DD
:10412000F10419F0C701B60120E1C72ED82EE92EFF
:10413000FF24C114D104E104F10419F0285FC70180
:10414000B6016B017C0154E0F694E794D794C794D0
:104150005A95D1F7C114D104E104F10419F02C5F90
:10416000C701B6016B017C0142E0F694E794D79455
:10417000C7944A95D1F7C114D104E104F10419F0B0
:104180002E5FC701B6019695879577956795672B42
:10419000682B692B09F02F5F822FFF90EF90DF9043
:1041A000CF90089590E080E00E94B03121E08D3EF4
:1041B0009E4F09F020E0822F089582E090E00C9459
:1041C000A23183E090E00C94A23184E090E00C9462
:1041D000A231682F84E090E00C94B631AB01BC01B1
:1041E0008FE090E00C94C831AB01BC0183E190E01A
:1041F0000C94C83160E070E0CB010C94F42060E0D6
:1042000070E0CB010E94EE200C94FA206DEE7EEF60
:1042100090E080E00E94D43160E082E090E00E9473
:10422000B63160E083E090E00E94B6311092060360
:1042300010920703109208031092090360E084E0D3
:1042400090E00E94B63160E085E090E00E94B631D7
:1042500060E086E090E00E94B6316FEF87E090E08A
:104260000E94B63140E050E0BA0188E090E00E9440
:10427000C83160E08DE090E00E94B6310C94FF20E0
:104280000C940621FC01329680912001882321F0B4
:104290008091A9039EE187FF96E080E0915008F4A9
:1042A000089521912223D1F38F5FF8CF9C01FC0167
:1042B00032969FEF80E04191461751F09F3F19F4ED
:1042C000411101C0982F8F5F8630A9F79F3F09F4F5
:1042D0000895290F311D97FD3A95F90162830895DC
:1042E000FC01329608962191261303C0DF01119735
:1042F0001C92E817F907B9F70895E62FE695E695B9
:10430000E695EE3168F4E80FF92FF11D677021E0B2
:1043100030E001C0220F6A95EAF78281822B828306
:104320000895E62FE695E695E695EE3170F4E80FF0
:10433000F92FF11D677021E030E001C0220F6A956E
:10434000EAF7209582812823228308952091200175
:10435000222329F02091A90327FD0C947D210C94A0
:10436000562120912001222329F02091A90327FD25
:104370000C9491210C947021FC01329680912001C3
:10438000882351F08091A90387FF06C08EE1DF01E9
:104390001D928A95E9F7089586E0F9CF08950C9467
:1043A000CE210E94CF218091AF03843049F1109239
:1043B000300388E190E020E40FB6F894A89580934C
:1043C00060000FBE2093600080E00E9435070E94CD
:1043D000CF2183B7817F846083BF83B7816083BF30
:1043E0007894889583B78E7F83BF0FB6F894A8958D
:1043F00080916000886180936000109260000FBE21
:1044000008950895CF930E94CB030E9477040E94E1
:104410000122C0E08C2F0E94B604811105C0CF5F3D
:10442000CE30C1F7CF91089581E0FCCF08950C9470
:1044300016220E944D1A0E9474140E9435070C9493
:1044400017221F921FB61F9211248F939F93AF9331
:10445000BF9380913003811113C08091A503909187
:10446000A603A091A703B091A8034196A11DB11D79
:104470008093A5039093A603A093A703B093A803EA
:10448000BF91AF919F918F911F901FBE1F90189564
:1044900082E084BD93E095BD9AEF97BD80936E0056
:1044A00008952FB7F8948091A5039091A603A09149
:1044B000A703B091A8032FBF0895CF92DF92EF9288
:1044C000FF920F931F932FB7F8944091A50350913B
:1044D000A6036091A7037091A8032FBF6A017B0117
:1044E000EE24FF248C0130E020E0C016D106E20665
:1044F000F30650F0481B590BCA011F910F91FF9012
:10450000EF90DF90CF90089541505109F3CF789408
:104510001F921FB61F9211248F939F93AF93BF9347
:104520008091A5039091A603A091A703B091A80341
:104530000196A11DB11D8093A5039093A603A0939E
:10454000A703B093A803BF91AF919F918F911F9044
:104550001FBE1F901895F89481E08093E00080E2E0
:104560008093D800E9ECF0E010828FE19EE401979F
:10457000F1F700C000001DBA109268001CBC10BE0C
:104580001FBA10927A0010926E0010926F00109273
:104590007100109272001082ECEBF0E0108214B8FF
:1045A00017B81AB81DB810BA108215B818B81BB8C9
:1045B0001EB811BA0C94003F08950E94D2208111B8
:1045C00002C00E9440210E94DD2080932F030E94A0
:1045D000E52090E09093AA038093A9030E94E12034
:1045E000682F70E090E080E00C940D1E8091340301
:1045F00080FF12C0609114018AE0689FB00111240D
:1046000075956795759567956038710580F56115A5
:10461000710579F1862F089581FF07C0609114011B
:1046200085E0689FB0011124EFCF6091140182FDF5
:104630000AC0809135038823B9F0909113016091ED
:104640001401891710F08AE0ECCF869FB001112485
:104650008AE0869F9001879F300D1124692F70E0BA
:10466000C9010E947B31D0CF6AE070E0D3CF8FE7E1
:10467000089581E008958091340380FF0CC060911B
:10468000120170E0759567957595679561157105CF
:1046900049F1862F089581FF06C06091120170E0F4
:1046A00075956795F3CF6091120182FD0BC09091D3
:1046B00035039923A1F060911101809112019617A1
:1046C00038F0682F70E06038710500F38FE70895C7
:1046D000899FC001112470E00E947B31F4CF61E01A
:1046E00070E0D7CF81E00895803F31F40E94F62238
:1046F0008195809339030895813F19F40E94F62231
:10470000F8CF823F31F40E94F622819580933803DE
:104710000895833F19F40E94F622F8CF893F29F4C7
:104720000E943B2380933A0308958A3F21F40E941C
:104730003B238195F7CF8B3F31F40E943B2381953A
:1047400080933B0308958C3F19F40E943B23F8CFDC
:10475000843F31F48091370381608093370308955B
:10476000853F21F4809137038260F7CF863F21F4A3
:10477000809137038460F1CF873F21F48091370324
:104780008860EBCF883F21F4809137038061E5CFCB
:104790008D3F31F480913403816080933403089518
:1047A0008E3F21F4809134038260F7CF8F3FB9F7B9
:1047B000809134038460F1CF90913803803F41F4BD
:1047C0008091390387FD10923903992371F0089580
:1047D000813F29F4809139031816ACF3F6CF823F5C
:1047E00081F497FFF2CF10923803809139039091B2
:1047F0003A03892B90913B03892B49F7109235039B
:104800000895833F19F4191674F3DFCF893F39F403
:1048100080913A031816CCF610923A03D6CF8A3F0D
:1048200029F480913A0387FFD0CFF6CF8B3F39F43C
:1048300080913B0387FFC9CF10923B03C6CF8C3FCB
:1048400029F480913B031816BCF3BFCF843F31F4A9
:10485000809137038E7F80933703B7CF853F21F454
:10486000809137038D7FF7CF863F21F48091370306
:104870008B7FF1CF873F21F480913703877FEBCF88
:10488000883F21F4809137038F7EE5CF8D3F31F44F
:10489000809134038E7F8093340397CF8E3F21F431
:1048A000809134038D7FF7CF8F3F09F08ECF8091B9
:1048B00034038B7FF0CF86E393E00E949A140E942A
:1048C0005122909332038093310308951F93CF9325
:1048D000DF9380913103909132030E945D22AC01FD
:1048E000909135032091150130E0911106C020917F
:1048F00033038AE0289F900111244217530778F070
:1049000020913803D091390310913A03C0913B03B1
:10491000211109C08D2F812B8C2B09F066C0DF91EE
:10492000CF911F9108959F3F19F09F5F909335039A
:10493000121624F40E94F6228093380380913803E3
:1049400087FF05C00E94F6228195809338031D16CB
:1049500024F40E94F622809339038091390387FF63
:1049600005C00E94F6228195809339033091380367
:104970003323C1F0209139032223A1F045EB340306
:10498000C0011124892F911101C081E08093380367
:1049900045EB240390011124832F311101C081E0E4
:1049A00080933903111624F40E943B2380933A0329
:1049B00080913A0387FF05C00E943B238195809335
:1049C0003A031C1624F40E943B2380933B038091FE
:1049D0003B0387FF05C00E943B23819580933B03E7
:1049E000DF91CF911F910C945B249F3F09F09DCFE5
:1049F000AECF86E0E6E3F3E0DF011D928A95E9F7AA
:104A000010923503109234030895833081F128F415
:104A1000813059F08230D1F00895853009F449C0D1
:104A2000B8F1863009F456C0089580913303482FB9
:104A3000460F5527551F4F3F510524F4680F6093CB
:104A4000330308958FEF8093330308958091150108
:104A5000482F460F5527551F4F3F510524F4680F27
:104A60006093150108958FEF80931501089580914B
:104A70001401482F460F5527551F4F3F510524F469
:104A8000680F6093140108958FEF809314010895C7
:104A900080911301482F460F5527551F4F3F510551
:104AA00024F4680F6093130108958FEF809313012E
:104AB000089580911201482F460F5527551F4F3FEB
:104AC000510524F4680F6093120108958FEF8093CD
:104AD0001201089580911101482F460F5527551F47
:104AE0004F3F510524F4680F6093110108958FEF33
:104AF000809311010895833011F128F4813049F039
:104B0000823091F00895853081F120F18630C1F135
:104B1000089580913303681720F4861B8093330334
:104B2000089510923303089580911501681720F4B9
:104B3000861B8093150108951092150108958091A8
:104B40001401681720F4861B8093140108951092B5
:104B50001401089580911301681720F4861B809337
:104B6000130108951092130108958091120168179E
:104B700020F4861B8093120108951092120108956B
:104B800080911101681720F4861B8093110108950C
:104B90001092110108950F931F9341E050E060E0DF
:104BA00070E08A019B0104C0000F111F221F331FF8
:104BB0008A95D2F7C901B8010E940D1E1F910F916D
:104BC0000C944D1A873208F043C08E3108F089C02A
:104BD000803109F47BC0C8F4873009F469C028F437
:104BE000863009F45CC080E008958B3009F455C02C
:104BF0008E30C9F790912F03892F8B7F92FF8460AD
:104C000080932F0382FD20C048C0863109F445C03F
:104C100068F4813141F70E944D1A9091A903892FC0
:104C200097FB87F980588093A90337C08931A9F190
:104C30008B31C9F690912F03892F8D7F91FF826070
:104C400080932F0381FF29C080912F0381603BC097
:104C5000883319F150F4893221F0853311F087320D
:104C600011F680E00E94CB2518C08334D1F328F4DC
:104C70008A3308F4B8CF8953F5CF883409F0B3CF1D
:104C80000E944D1A2FEF83ED90E321508040904019
:104C9000E1F700C000000E94AB2281E008958091FE
:104CA0002F03807F80932F0381E080933D0308953D
:104CB00090912F03892F8E7F90FF816080932F0327
:104CC00080FDEBCF817F80932F03E7CF90912F035F
:104CD000892F877F93FF886080932F0383FDB4CF54
:104CE000DCCF8D51BFCF80E008950C9473268E5198
:104CF0008A3030F4E82FF0E0E753FE4F80810895CA
:104D000080E00895CF93C82F80913D038130E1F07A
:104D1000882331F08230F1F110923D0380E012C01F
:104D2000E0910F01F09110018081813111F0823208
:104D3000A9F78C2F0E947326811120C08C2F0E940E
:104D4000E2258170CF910895E0910F01F09110015B
:104D50008081813171F3823261F38C2F0E9475263C
:104D600081110AC0C43199F060F4CB3029F0C03110
:104D700041F782E080933D0381E0E3CF81E090E062
:104D8000E0CFC93221F0C833B9F380E0DACF109216
:104D90003D03FBCFC93219F188F4C43101F120F48D
:104DA000C73081F181E0CECF82EE8C0F8630D0F714
:104DB0008C2F0E94772680933C03F4CFCE3401F1F0
:104DC00040F46AE0CB3471F780913C030E940525E2
:104DD000E9CFC13579F061E0C235B1F3E3CF80911D
:104DE0003C03882319F010923C03DCCF81E08093D0
:104DF0003D03A8CF61E080913C030E947B25D2CF88
:104E00006AE0F9CF1092330384E180931501C093D7
:104E100014018CE38093130188E08093120188E2EF
:104E200080931101BFCF80915E0308950F931F936C
:104E3000CF93DF9300D00F92CDB7DEB78C010E94E5
:104E40007A29823011F0843021F584E089831B8334
:104E50000A8382E08093E9008FEF9091E80081500F
:104E600095FD06C095ED9A95F1F700008111F5CFFB
:104E70008091E80085FF0DC050E040E063E070E005
:104E8000CE0101960E9497298091E8008E77809349
:104E9000E8000F900F900F90DF91CF911F910F912D
:104EA0000895CF93DF9300D00F92CDB7DEB7209156
:104EB000AF03243031F523E02983805891099B8387
:104EC0008A8382E08093E9008FEF9091E80081501F
:104ED00095FD06C095ED9A95F1F700008111F5CF8B
:104EE0008091E80085FF0DC050E040E063E070E095
:104EF000CE0101960E9497298091E8008E778093D9
:104F0000E8000F900F900F90DF91CF910895CF930D
:104F1000DF93EC010E947A29823011F08430F9F499
:104F200082E08093E9008FEF9091E800815095FD39
:104F300006C095ED9A95F1F700008111F5CF8091AB
:104F4000E80085FF0CC050E040E066E070E0CE0174
:104F50000E9497298091E8008E778093E800DF9186
:104F6000CF910895CF93DF93EC010E947A2982308C
:104F700011F08430B9F5809120018823B1F180913E
:104F8000A90387FF32C060E282E08093E9008FEFDF
:104F90009091E800815095FD06C095ED9A95F1F746
:104FA00000008111F5CF8091E80085FF1BC0809142
:104FB000200170E050E040E0811104C050E040E08A
:104FC00068E070E0CE010E9497298091E8008E771A
:104FD0008093E80080E2FE01AEE3B3E001900D9221
:104FE0008A95E1F7DF91CF91089568E081E0CDCF18
:104FF0008091AE03811109C00E94252B0E94822B53
:105000008091E20084608093E20008951092AE03E4
:105010000895089508950C94192242E061EC81E00E
:105020000E94A32A42E261EC82E00C94A32A8091C0
:10503000B103833009F45DC030F48130B1F18230C6
:1050400009F499C008958A3009F485C08B3009F4B9
:105050006BC0893009F04CC08091B003813209F0F7
:1050600047C08091B4039091B503029708F040C007
:105070008091E800877F8093E8008091E80082FFBC
:1050800033C080912001882329F08091F1008B7F2B
:10509000813021F48091F10080935E038091E800DB
:1050A0008B778093E8000C94D72A8091B003813AE3
:1050B000F9F48091E800877F8093E8008091B40341
:1050C0009091B503892B61F460E28EE393E070E088
:1050D0000E94E6298091E8008B778093E80008958C
:1050E00060E090E080E0F3CF8091AF038111C5CF05
:1050F00008958091B003813AD9F78091B4039091DB
:10510000B503892BA9F78091E800877F8093E80099
:105110008091E80080FFFCCF809120018093F10016
:105120008091E8008E77BDCF8091B003813201F786
:105130008091B4039091B503892BD1F68091E8005A
:10514000877F8093E8000E94D72A8091B2038093E2
:1051500020010C944D1A8091B003813249F6809160
:10516000E800877F8093E8000E94D72A8091B303EC
:1051700080935F0308958091B003813A09F0B8CF1E
:105180008091E800877F8093E8008091E80080FFAD
:10519000FCCF80915F03C2CF84B7877F84BF0FB6F7
:1051A000F894A895809160008861809360001092C7
:1051B00060000FBE80E880936100109261000E9441
:1051C000DC140E94252B0E94822B8091E2008460D7
:1051D0008093E20078940E94022E0E94E21486E1FD
:1051E00091E00E946F148091AF03853029F00E94F6
:1051F000EA140E946B13F7CF0E94D1218091AD0376
:10520000882389F30E940222882369F30E9481295E
:10521000EACF0C940B29292F33272330310519F1BC
:1052200068F42130310509F44AC02230310509F40F
:105230004BC090E080E030E020E028C02132310512
:1052400079F122323105A9F780E490E025EF35E0CD
:1052500061157105D9F080EC90E025E335E061300F
:105260007105A1F0E6CF99278130910599F000975B
:1052700041F08230910589F00397D9F6EEEAF4E027
:1052800002C0E4EEF4E0849190E09F01FA013183E2
:1052900020830895ECECF4E0F6CFE4EBF4E0F3CFF8
:1052A00089E090E02AEF34E06115710579F389E037
:1052B00090E023E135E06130710541F3BACF82E13E
:1052C00090E023E235E0E2CF8BE390E028EE34E09B
:1052D000DDCF0895CF93C82F0E946929C093600342
:1052E000CF9108958091AF03843011F482E0089546
:1052F00081E0089580916003811102C00C947229AD
:10530000089580E189BD82E189BD09B400FEFDCF29
:105310008091D8008F7D8093D8008091E0008260DA
:105320008093E0008091E00081FDFCCF0895AF9272
:10533000BF92CF92DF92FF920F931F93CF93DF9391
:105340006C01EB018A010E94F62AF82E811123C01C
:105350000115110539F0F80180819181C81BD90B25
:10536000C80ED91EB12CA12C2097A9F08091E8007D
:1053700085FD22C08091E8008E778093E8000115BA
:105380001105A1F0F80180819181A80EB91EB182AA
:10539000A08285E0F82E8F2DDF91CF911F910F9184
:1053A000FF90DF90CF90BF90AF9008950E94F62AB3
:1053B0008823D1F2F82EEFCFF60181916F0180930F
:1053C000F1002197FFEFAF1ABF0ACECFFC01809109
:1053D000B6039091B70386179707A0F06115710582
:1053E00029F49091E8009E779093E80090E0611591
:1053F000710551F4911108C08091E80082FF34C01A
:1054000080E00895BC01F2CF8091AF038823C1F101
:105410008530C1F18091E80083FD30C08091E800C3
:1054200082FDEACF8091E80080FFE1CF8091F30018
:105430002091F200382F6115710519F028303105DF
:1054400058F091E02830310509F090E02091E80013
:105450002E772093E800CBCF81918093F1006150AB
:1054600071092F5F3F4FE7CF8091AF03882341F051
:10547000853041F08091E80083FFBECF81E0089540
:1054800082E0089583E00895FC018091B603909135
:10549000B70386179707A0F06115710529F480916D
:1054A000E8008E778093E80090E06115710551F473
:1054B000911108C08091E80082FF35C080E0089516
:1054C000BC01F2CF8091AF038823C9F18530C9F1C7
:1054D0008091E80083FD31C08091E80082FDEACF31
:1054E0008091E80080FFE1CF8091F3002091F200ED
:1054F000382F6115710519F02830310558F091E009
:105500002830310509F090E08091E8008E77809393
:10551000E800CBCF84918093F100319661507109FE
:105520002F5F3F4FE6CF8091AF03882341F0853056
:1055300041F08091E80083FFBDCF81E0089582E0D3
:10554000089583E00895982F973028F08F70809306
:10555000E90081E008959093E900242F762F50E030
:10556000981731F07091EC002091ED005091F0000F
:1055700021FD02C09F5FE8CF3091EB003E7F30936A
:10558000EB003091ED003D7F3093ED003091EB006A
:1055900031603093EB007093EC002093ED0050935A
:1055A000F0002091EE0027FDE5CF80E00895809186
:1055B000B00387FF13C08091E80082FF06C080918E
:1055C000E8008B778093E80004C08091AF038111DD
:1055D000F2CF08958091AF038823D9F38091E8003A
:1055E00080FFF8CF8091E8008E77ECCF2091E40027
:1055F0003091E50085E6A9019091EC0090FF06C08E
:105600009091E80090FF06C080E008959091E80036
:1056100092FDFACF9091AF03992389F0953089F0EC
:105620009091EB0095FD0FC02091E4003091E500D2
:105630004217530709F38150F1F684E0089582E0A0
:10564000089583E0089581E008950E94932B0E94BD
:105650009B2BE0EEF0E0808181608083E8EDF0E05C
:1056600080818F77808319BCA7EDB0E08C918E7F0D
:105670008C9380818F7E80831092AE0308950F9368
:105680001F93CF93DF930E94932B0E949B2BC8ED17
:10569000D0E088818F77888388818068888388813B
:1056A0008F7D888319BC1092AF031092AB031092C8
:1056B000AD031092AC0300EE10E0F80180818B7F07
:1056C000808388818160888342E060E080E00E947E
:1056D000A32AE1EEF0E080818E7F8083E2EEF0E0AD
:1056E000808181608083808188608083F8018081EF
:1056F0008E7F8083888180618883DF91CF911F9125
:105700000F910895E8EDF0E080818F7E8083E7EDD2
:10571000F0E080818160808384E082BF81E08093BB
:10572000AE030C943F2BE8EDF0E080818E7F808308
:105730001092E20008951092DA001092E1000895AC
:105740001F920F920FB60F9211242F933F934F93F6
:105750005F936F937F938F939F93AF93BF93EF93D9
:10576000FF938091E10082FF0BC08091E20082FFF5
:1057700007C08091E1008B7F8093E1000E94012EA1
:105780008091DA0080FF19C08091D80080FF15C099
:105790008091DA008E7F8093DA008091D90080FFBB
:1057A00094C080E189BD82E189BD09B400FEFDCFCE
:1057B00081E08093AF030E94F8278091E10080FF91
:1057C00019C08091E20080FF15C08091E2008E7FB9
:1057D0008093E2008091E20080618093E2008091FA
:1057E000D80080628093D80019BC85E08093AF0315
:1057F0000E940A288091E10084FF29C08091E20084
:1058000084FF25C080E189BD82E189BD09B400FE25
:10581000FDCF8091D8008F7D8093D8008091E100EA
:105820008F7E8093E1008091E2008F7E8093E20082
:105830008091E20081608093E2008091AB03882335
:1058400009F449C084E08093AF030E940B28809143
:10585000E10083FF29C08091E20083FF25C0809191
:10586000E100877F8093E10082E08093AF03109294
:10587000AB038091E1008E7F8093E1008091E20094
:105880008E7F8093E2008091E20080618093E2004D
:1058900042E060E080E00E94A32A8091F0008860EE
:1058A0008093F0000E940928FF91EF91BF91AF9182
:1058B0009F918F917F916F915F914F913F912F9128
:1058C0000F900FBE0F901F90189519BC1092AF0348
:1058D0000E94062872CF8091E30087FD02C081E01C
:1058E000B2CF83E0B0CF1F920F920FB60F92112468
:1058F0002F933F934F935F936F937F938F939F93D8
:10590000AF93BF93CF93EF93FF93C091E900CF7014
:105910008091EC001092E9008091F000877F8093E5
:10592000F00078940E94AF2C1092E9008091F00072
:1059300088608093F000C093E900FF91EF91CF91D0
:10594000BF91AF919F918F917F916F915F914F9197
:105950003F912F910F900FBE0F901F9018951F939E
:10596000CF93DF93CDB7DEB7AA970FB6F894DEBF1B
:105970000FBECDBF80EB93E02091F100FC0121939D
:10598000CF01F3E0883B9F07B9F70E941728809169
:10599000E80083FF1EC18091B0039091B1039A305B
:1059A00008F017C1E92FF0E0EF5CFD4C0C948F314B
:1059B000803899F0823809F00CC18091B4038F705F
:1059C000873008F006C18093E9008091EB0085FBE9
:1059D000882780F91092E90006C08091AC0390916D
:1059E000AD03911182609091E800977F9093E80059
:1059F0008093F1001092F1008091E8008E77E5C06D
:105A0000882309F4D3C0823009F0E3C08091B20347
:105A10008111D6C08091B4038F702FEF280F2630EC
:105A200008F0D7C08093E9002091EB0020FFC8C0A8
:105A3000933031F48091EB0080628093EB00C0C022
:105A40009091EB0090619093EB0021E030E001C079
:105A5000220F8A95EAF72093EA001092EA008091DB
:105A6000EB008860EACF8111B4C01091B2031F77B8
:105A70008091E3008078812B8093E3008091E8009F
:105A8000877F8093E8000E94D72A8091E80080FFFA
:105A9000FCCF8091E30080688093E30082E01111E5
:105AA00083E08093AF0395C08058823008F091C0A6
:105AB0008091B2039091B3038C3D23E09207A1F54E
:105AC00083E08A838AE289834FB7F894DE011396D4
:105AD00020E03EE051E2E32FF0E050935700E491E4
