:100000000C941B030C9438030C9438030C943803A1
:100010000C9438030C9438030C9438030C94380374
:100020000C9438030C9438030C940E2C0C94E12C93
:100030000C948F220C9438030C9438030C943803DE
:100040000C9438030C9438030C9438030C94380344
:100050000C9438030C94F5220C9438030C94380358
:100060000C9438030C9438030C9438030C94380324
:100070000C9438030C9438030C9438030C94380314
:100080000C9438030C9438030C9438030C94380304
:100090000C9438030C9438030C9438030C943803F4
:1000A0000C9438030C9438030C94380307634236DD
:1000B000B79BD8A71A39685618AEBAAB558C1D3CF9
:1000C000B7CC5763BD6DEDFD753EF6177231BF00BD
:1000D0000000803F05A84CCDB2D44EB93836A902F5
:1000E0000C50B9918688083CA6AAAA2ABE00000036
:1000F000803F29002B00E100E100025100001E00BA
:10010000140004001D61DF5C35001F001A0016009A
:100110001B64E15C2A002000080007000668E05C20
:100120002C00210015000900190003514D00220088
:1001300017000A0005000000000010502D0000000C
:100140002E0000004A0011502F0000003000000077
:10015000650023001C000B001100000000002400BB
:1001600018000D00100003514B0025000C000E007C
:100170003668E05C2800260012000F003764E15C5E
:100180004C002700130033003861DF5C4E00000094
:1001900034003100E5000251000001002B00E100B5
:1001A000E100010000001E003800040033000100DF
:1001B00001001F00360012001400010001002000A1
:1001C000370008000D000100010021001300180095
:1001D0000E000100010022001C000C001B000000AA
:1001E000010010500000000000000000010011504C
:1001F00000000000000000000100230009000700CB
:1002000005000000010024000A000B00100001009E
:1002100001002500060017001A0001000100260059
:100220001500110019000100010027000F00160041
:100230001D0001000100010001000100E5000100B6
:1002400000000000000000000100010000003A0072
:100250001E0222022002010001003B0023021F02B5
:100260003402010001003C002F0226022F00010091
:1002700001003D00300227023000010001003E0075
:1002800021022D002D0200000100000035020000B7
:1002900034000000010000003500000000000000F4
:1002A00001003F0038002502270000000100400047
:1002B000240021001E000100010041002500220051
:1002C0001F00010001004200260023002000010061
:1002D000010043002D002E02370001000100440000
:1002E00045002E0001000100000000000100010097
:1002F00001000100000000000000F500F400010012
:10030000010000000000F2000000010001000000F8
:10031000F000F100F6000100010000000000F30011
:1003200000000100010000000000000000000000CB
:1003300001000000000000000000000001000000BB
:1003400000000000000000000100000000000000AC
:10035000000000000100000000005000FB00010050
:100360000100000052005100F900FA00B600000040
:1003700000004F00FC0001000100A800FF00FE008B
:10038000FD0001000100AE00A900AA00010001006B
:10039000000000047F3F1F643214643214783C1E56
:1003A0001E140A056801F000B40078005A0000002D
:1003B000000000010101010101010101020202022C
:1003C00002020202020303030303030303040404FF
:1003D00004040405050505050606060606070707C5
:1003E00007080808080909090A0A0A0A0B0B0B0C76
:1003F0000C0C0D0D0D0E0E0F0F0F10101111111210
:100400001213131414151516161717181819191A8C
:100410001A1B1C1C1D1D1E1F1F20202122222324ED
:10042000252526272728292A2B2B2C2D2E2F2F3028
:10043000313233343536363738393A3B3C3D3E3F3E
:100440004041424344464748494A4B4C4D4F505126
:100450005253555657585A5B5C5E5F6062636466E0
:1004600067696A6C6D6E707173747678797B7C7E67
:100470008081838486888A8B8D8F91929496989AB6
:100480009B9D9FA1A3A5A7A9ABADAFB1B3B5B7B9CC
:10049000BBBDBFC1C4C6C8CACCCFD1D3D6D8DADCA5
:1004A000DFE1E4E6E8EBEDF0F2F5F7FAFCFF040338
:1004B0003000000016034500720067006F00440022
:1004C0006F007800200045005A0000001603450028
:1004D000720067006F0044006F0078002000450044
:1004E0005A0000000403090409023B00020100A0B5
:1004F000FA090400000103010100092111010001B2
:100500002240000705810308000A090401000103D5
:1005100000000009211101000122C000070582032B
:1005200020000A1201100100000008EDFE0713016F
:10053000000102030105010902A10185020901A1CF
:100540000005091901290515002501950575018189
:1005500002950175038101050109300931158125D5
:100560007F95027508810609381581257F950175EB
:10057000088106050C0A38021581257F950175084A
:100580008106C0C005010980A1018503160100266E
:1005900003001A81002A8300751095018100C005AF
:1005A0000C0901A1018504160100269C021A010014
:1005B0002A9C02751095018100C005010906A10160
:1005C0008505050719E029E715002501950875013E
:1005D000810205081901290595057501910295010A
:1005E000750391010507190029EF1500250195F004
:1005F00075018102C005010906A101050719E0295D
:10060000E71500250195087501810295017508819E
:1006100001050819012905950575019102950175D6
:100620000391010507190029FF150026FF00950613
:1006300075088100C00011241FBECFEFDAE0DEBFD5
:10064000CDBF11E0A0E0B1E0E2E5F5E602C0059023
:100650000D92AA3DB107D9F723E0AAEDB1E001C0A0
:100660001D92A03CB207E1F70E943A290C9458323F
:100670000C94000080B38C7080BB81B3836F81BB0E
:10068000089584B1807F84B985B1807F85B98AB1AE
:10069000837F8AB98BB1837F8BB93E984698089542
:1006A000CF93C82F873080F5809100019091010190
:1006B000892B99F564E670E080E40E94C30490936E
:1006C000010180930001892BD1F464E670E082E19E
:1006D0000E941F059093010180930001892B79F4FA
:1006E00081E090E001C0880FCA95EAF764E670E007
:1006F00080950E941F05909301018093000184E67C
:1007000090E0CF910C9472058A30B9F040F48830B3
:1007100071F0893079F0209A2898CF9108958C3023
:1007200091F070F08D30B9F73E9A4698F6CF219A45
:100730002998F3CF229A2A98F0CF239A2B98EDCFBD
:10074000529A5A98EACF539A5B98E7CF0C945C0779
:10075000CF93DF930E94190690E09093010180935C
:1007600000010E9441030E943A03EDE3F2E0AFE290
:10077000B2E08BED91E011921D92EC0126E019920E
:100780002150E9F7069622E0EB34F207A1F7DF915A
:10079000CF910C9485070E94190690E09093010177
:1007A000809300010E9441030E943A03EDE3F2E0CE
:1007B000119282E0EB34F807D9F70895CF93DF93D5
:1007C000E62FF0E0E15DFD4F40814827808386E021
:1007D000689FF0011124E552FE4F30E020E080E0F8
:1007E00061E070E050E0AAE0B22F91919923B9F056
:1007F000EF01219791509883EA0102C0D595C795E2
:10080000BA95E2F7C0FF03C0EF012197A8832F5FDD
:100810003F4F2630310541F7DF91CF910895EB012D
:10082000022E01C0CC0F0A94EAF78C2BE5CFCF93B0
:10083000DF93D82F873008F050C08091000190914D
:100840000101C0E0892B81F464E670E080E40E943D
:10085000C3049093010180930001892BB1F0C0E0A3
:1008600084E690E00E9472056D2F8C2F0E94DE03BB
:10087000ED2FF0E0E35CFD4F982F909520819223BF
:100880008C23892BDF91CF91089564E670E083E19A
:100890000E941F059093010180930001892BF9F6B6
:1008A00064E670E081E40E94C304909301018093A8
:1008B0000001892BA1F684E690E00E944E0597FF87
:1008C00005C09093010180930001C9CFC82FC09546
:1008D0001092010110920001C3CFCFB18FB1869564
:1008E00086958C73C3708C2BC82FC095BDCF0F938A
:1008F0001F93CF93DF938091000190910101892B89
:1009000091F08091DA018F5F8093DA0181110BC041
:100910000E94190690E09093010180930001892BB9
:1009200011F40E94C3050DE312E0C0E08C2F0E9479
:100930005003D7E0DC0F8D2F0E9450038C2F0E94B4
:100940001704F80181938F018D2F0E941704F8017D
:1009500086830E944103CF5FC73041F70E948D0715
:1009600081E0DF91CF911F910F910895E82FF0E082
:10097000E35CFD4F8081089508951092B9008CE0EA
:100980008093B8000895EF92FF920F931F93CF9337
:10099000DF93182FEB011092BC0084EA8093BC0017
:1009A0000E94BF227C018091BC0087FF27C08091FC
:1009B000B900887F883029F08091B900887F803124
:1009C000D9F51093BB0084E88093BC000E94BF223D
:1009D0008C018091BC0087FF24C02091B900287F42
:1009E00090E080E02831B1F081E090E0203411F413
:1009F00090E080E09195819591090CC0CF3FDC0794
:100A000091F20E94BF228E199F098C179D0758F200
:100A10008EEF9FEFDF91CF911F910F91FF90EF909D
:100A20000895CF3FDC07A9F20E94BF22801B910BE3
:100A30008C179D0770F2ECCF8FEF9FEFEBCF0F93EA
:100A40001F93CF93DF93EB018093BB0084E88093E7
:100A5000BC000E94BF228C018091BC0087FF11C0A6
:100A60002091B900287F81E090E0283211F490E0D5
:100A700080E0919581959109DF91CF911F910F9120
:100A80000895CF3FDC0741F30E94BF22801B910BEA
:100A90008C179D0708F38EEF9FEFEECF0F931F93F8
:100AA000CF93DF93EC0184E88093BC000E94BF22C7
:100AB0008C018091BC0087FF08C08091BB0090E052
:100AC000DF91CF911F910F910895CF3FDC0789F3FC
:100AD0000E94BF22801B910B8C179D0750F38EEF55
:100AE0009FEFEECF0F931F93CF93DF93EC0184E939
:100AF0008093BC000E94BF228C018091BC0084FDC9
:100B000007C090E080E0DF91CF911F910F91089591
:100B1000CF3FDC0791F30E94BF22801B910B8C1703
:100B20009D0758F38EEF9FEFEECF569A5E9A089589
:100B3000259A2D9A0895269A2E9A0895279A2F9AE3
:100B4000089556985E98089525982D9808952698AA
:100B50002E98089527982F9808950E94A1050E9425
:100B6000A4050E94A7050C94AA0590E09093890023
:100B70008093880090938B0080938A0090938D00DF
:100B800080938C0008950E94AD058FEF0E94B505FB
:100B90000E9498052FEF80E792E02150804090401E
:100BA000E1F700C000000E949B052FEF80E792E074
:100BB000215080409040E1F700C000000E949E0557
:100BC0002FEF80E792E0215080409040E1F700C095
:100BD00000000E94A4052FEF80E792E021508040A2
:100BE0009040E1F700C000000E94A7052FEF80E7CA
:100BF00092E0215080409040E1F700C000000E9448
:100C0000AA050C94AD0589EA8093800089E0809361
:100C1000810024982C983F988AB18F7C8AB96E986D
:100C2000479A8BB180638BB9769A0E94C3050C9466
:100C3000040780E290E0909301018093000180918D
:100C40004B0281110EC00E94BD0481E080934B02D3
:100C50002FEF83ED90E3215080409040E1F700C0FA
:100C6000000064E670E080E40E94C30490930101F8
:100C700080930001892B09F050C064E670E080E0A9
:100C80000E941F059093010180930001892B09F0B8
:100C900044C064E670E080E00E941F05909301016B
:100CA00080930001892BC9F564E670E08FE30E9410
:100CB0001F059093010180930001892B71F584E653
:100CC00090E00E94720564E670E080E40E94C30434
:100CD0009093010180930001892BF9F464E670E0A0
:100CE0008CE00E941F059093010180930001892BE5
:100CF000A1F464E670E080E00E941F05909301017A
:100D000080930001892B49F464E670E08FE30E9430
:100D10001F05909301018093000184E690E00E94FA
:100D200072058091000108958F5D9C458330910587
:100D300030F484539E4FFC01808190E0089590E050
:100D400080E008958F5D9C458330910530F4875392
:100D50009E4FFC01808190E0089590E080E008952E
:100D60000F931F93CF938C018F5D9C45C1E0039738
:100D700048F4FB01C28180910A0381FF21C0C111A7
:100D800006C0C0E08C2FCF911F910F910895C8012C
:100D90000E94A206C82FC8010E9494068C0181E01F
:100DA0000E94FE1E8C2F0E94C71780914C029091CA
:100DB0004D02802B912B90934D0280934C02E1CFFA
:100DC000C8010E94A206CC2319F00E94C717D9CFF0
:100DD0000E94CE17C8010E94940620914C023091C7
:100DE0004D02A90148235923452B59F2809590952E
:100DF0008223932390934D0280934C02892B09F612
:100E000081E00E94DD1EBECF2FEF89E698E12150E0
:100E100080409040E1F700C000000E9495052FEF50
:100E200083EC99E0215080409040E1F700C0000041
:100E30000E9498052FEF83EC99E02150804090406C
:100E4000E1F700C000000E949B052FEF83EC99E0C2
:100E5000215080409040E1F700C000000E949E05B4
:100E60002FEF83EC99E0215080409040E1F700C0E3
:100E700000000E94A1052FEF83EC99E021508040F3
:100E80009040E1F700C000000E94A4052FEF83EC22
:100E900099E0215080409040E1F700C000000E949E
:100EA000A7052FEF83EC99E0215080409040E1F7B7
:100EB00000C000000C94AA05CF9360910A037091C2
:100EC0000B0380910C0390910D030E94F320C82F17
:100ED0000E94A1050E94A4050E94A7050E94AA05E0
:100EE000C23039F0C33041F0C13049F4CF910C9495
:100EF0009E05CF910C949805CF910C949B05CF91B2
:100F0000089581E008950C94B0060E94402181115B
:100F100002C00E94AE210C9403060C94A603282F55
:100F20002F7041F0822F90E02A3010F44D960895F2
:100F30000697089587E290E0089508950C949D0720
:100F40000C949E0708950E94BB1A0E94A2072FEFDF
:100F500084E39CE0215080409040E1F700C0000015
:100F60000C941923FF920F931F93CF93DF938C015F
:100F7000FC01C081D18180919802811150C0828191
:100F8000882309F447C0CE010E94D01FF82E682F95
:100F9000CE010E94791FBE018F2D0E947B0AEC01B9
:100FA000B8010E948307882309F4E9C0B801CE0183
:100FB0000E94F10C882309F4E2C0CC3CFCE5DF0779
:100FC00009F42EC108F071C0C43C9CE5D90709F4AE
:100FD00000C108F048C0C531FCE5DF0728F5C23084
:100FE0008CE5D80708F09CC1C1159CE5D90709F428
:100FF000C1C0C130DC4509F4C9C081E0809353020F
:1010000080935402C801DF91CF911F910F91FF90FF
:101010000C948107CE010E94A71FF82EBCCFCE01F1
:101020000E94D01FBE01B9CFC23CFCE5DF0709F426
:10103000BEC008F0C3C0C631DC45F9F60E94B72037
:10104000F8019281992309F448C28A7A91E009F45F
:1010500090E090934E0281113EC289E20E944020AE
:101060000E9484208CC0F8018281C83CFCE5DF0727
:1010700009F4C4C068F4C63CECE5DE0709F4B9C065
:1010800008F4B2C0882309F47AC00E94071077C020
:10109000CA3C9CE5D90709F4BDC008F4B5C0882353
:1010A00009F46DC00E94A60E6AC0C43DFCE5DF07CE
:1010B00009F414C170F5F8018281C03DFCE5DF0739
:1010C00009F4D0C0D8F4CE3CECE5DE0709F4B7C093
:1010D00008F4AEC0882309F452C00E94980E66300E
:1010E00071058105910540F00E94980E68307105E8
:1010F0008105910508F475C086E09EC0C23D9CE55F
:10110000D90709F4D7C008F4C1C08823C1F188E128
:1011100093C0C83DFCE5DF0709F4C2C1B0F4F80193
:101120008281C63DFCE5DF0709F46CC108F4ECC020
:10113000882309F496C1109254020E94BF22909312
:1011400052028093510280E268C1CC3DECE5DE079B
:1011500009F4DFC0CD3DFCE5DF0711F1CB3DDC45F7
:1011600009F04BCFF8018281882349F080E00E948A
:10117000D82905C0F801828181110E94A30780E06F
:10118000DF91CF911F910F91FF900895F801828117
:101190008823A9F380913703816080933703EFCFD1
:1011A000F8018281882359F30E94AE21E8CFF8012B
:1011B0008281882321F30E941011E1CFF8018281FE
:1011C0008823E9F20E94B720827259F00E94B2107F
:1011D000D6CFF8018281882391F20E94B7208272D3
:1011E000A9F30E94A810CBCF882349F20E94D00F08
:1011F000C6CF882321F20E94E80FC1CF882309F4CB
:10120000BECF0E941910BBCF882309F4B8CF0E942B
:101210002B10B5CF882309F4B2CF0E944310AFCF73
:10122000F8018281882309F4AACF0E94BB0EA7CFC0
:10123000882309F4A4CF81E00E94A510A0CF8823C1
:1012400009F49DCF0E94980E6230710581059105C9
:1012500038F00E94980E653071058105910508F2FD
:1012600082E0EACF882309F48ACF0E94980E693081
:1012700071058105910540F00E94980E6E30710550
:101280008105910508F4ADCF89E0D6CF882309F414
:1012900076CF0E94980E6F3071058105910540F060
:1012A0000E94980E643171058105910508F499CF6B
:1012B0008FE0C2CF882309F462CF0E94980E653177
:1012C00071058105910540F00E94980E6731710506
:1012D0008105910508F485CF85E1AECFF8018281C3
:1012E000882309F44CCF0E94980E6931710581055D
:1012F000910540F00E94980E6232710581059105BA
:1013000008F46FCF89E198CF882309F438CF83E2BE
:1013100093CFF8018281882309F431CF82E027CF6F
:10132000F8018281882309F46DCE0E944021811149
:1013300002C00E94AE210E94532190E09093B2031C
:101340008093B103FE01E350FC458091B1038160BD
:10135000E231F10538F4E65AFD4C0C94FD318091F0
:10136000B10382608093B1038091B1030E94572141
:101370000E94BB1A04CF8091B1038460F3CF8091A7
:10138000B1038860EFCF8091B1038061EBCF809192
:10139000B1038062E7CF8091B1038064E3CF809195
:1013A000B1038068DFCF8091B1038C60DBCF809187
:1013B000B1038E7FD7CF8091B1038D7FD3CF809142
:1013C000B1038B7FCFCF8091B103877FCBCF80914B
:1013D000B1038F7EC7CF8091B1038F7DC3CF809142
:1013E000B1038F7BBFCF8091B1038F77BBCF80914B
:1013F000B103837FB7CF9091B103892F97FB87F912
:101400008058B0CF882361F0109253020E94BF220F
:101410009093500280934F0282E00E94C717AFCE94
:101420000E94B72085FF09C081E08093530280931A
:10143000540282E00E94CE17A2CE80915302811105
:10144000F8CF80914F02909150020E94CB22883CAD
:10145000910578F786E20E94841686E20E94711751
:10146000E8CF0E94B72081FF07C081E0809353023C
:101470008093540280E2DECF809154028111FACF32
:1014800080915102909152020E94CB22883C91059A
:1014900088F787E20E94841687E20E947117EACFDC
:1014A000F8018281811147CE809154028111E2CFEF
:1014B00080915102909152020E94CB22883C91056A
:1014C000C8F680E20E94CE1788E20E94841688E265
:1014D0000E94711754CE85E3C1CD80914E028111D7
:1014E00004C089E20E944720BBCD85E3FBCF90E09A
:1014F00080E008950895972F70E026E0929F600D98
:10150000711D1124FB0194E5899FE00DF11D11244B
:10151000EE0FFF1FEE50FF4F859194910895FC014F
:10152000EE0FFF1FEE56FC4F859194910895CF93D7
:10153000DF930E947B0A0E94530CEC01811520E589
:10154000920708F042C0811530E4930708F018C1F3
:10155000883E910528F5803E910508F0A4C0883AA0
:10156000910588F4853A910508F093C08130910582
:1015700009F499C0009709F496C0049708F093C045
:10158000D0E0C0E090C08F3B910508F490C0805C33
:101590009109C03CD105A0F30E948F0AEC0183C0E1
:1015A0008115904250F4C11581E0D80708F07BC046
:1015B000C03FD10528F3D06576C0C11590E3D907A7
:1015C00008F0D4C0CE019F70E7CF811525E59207C2
:1015D00058F5811534E5930708F001C1811542E5FE
:1015E000940750F4C11581E5D80708F4CCC0DC2F6E
:1015F000CC27C16FD06A57C0982F969596959E01BB
:1016000023703327C115D34508F0DAC0C1E0D0E01C
:1016100002C0CC0FDD1F2A95E2F720E2929FC001A5
:101620001124C82BD92BCAC0C1158AE5D807A0F44C
:10163000C11599E5D90708F0DDC0C11526E5D20727
:1016400008F4D2C0C11538E5D30708F499CFDC2FD0
:10165000CC27C06FD06A27C0C1154BE5D40708F46A
:101660008FCFC1158CE5D80708F4CFC0CE019056B6
:101670008115904208F084CF8D2F8F710E94CE0C7F
:1016800090E0982F882788279F719C012C2BE901D7
:10169000AFC0853A910509F4BBC0863A910509F0BF
:1016A000BAC0C2E8D0E4CE01DF91CF910895883A64
:1016B000910509F4B3C0893A910509F4B2C08A3A98
:1016C000910509F4B1C08B3A910509F4B0C08C3A88
:1016D000910509F4AFC08B3B910509F4AEC08C3B7A
:1016E000910509F4ADC08D3A910509F4ACC0803B79
:1016F000910509F4ABC08E3A910509F4AAC08F3A5E
:10170000910509F4A9C0813B910509F4A8C0823B69
:10171000910509F4A7C0833B910509F4A6C0843B59
:10172000910509F4A5C0853B910509F4A4C0863B49
:10173000910509F4A3C0873B910509F4A2C0883B39
:10174000910509F4A1C0893B910509F4A0C08D3B26
:10175000910509F49FC08E3B910509F49EC08A3B18
:10176000910509F49DC0C0E0D4E49DCFCE01992736
:10177000D3FF03C0EC01D86C96CFEC01D06C93CFB3
:10178000DF70D06A90CFCE01E4E096958795EA9518
:10179000E1F783702C2F26952695237040E2249F35
:1017A00090011124382B8C2F8370C1E0D0E002C04F
:1017B000CC0FDD1F8A95E2F7C22BD32BDC6873CFE9
:1017C000C1E0D0E002C0CC0FDD1F2A95E2F730E285
:1017D000939FC0011124C82BD92BDA6864CFD82F6E
:1017E000CC27C46FD06A5FCFDC2FCC27CC27DF712A
:1017F000D06259CFCE0134E0969587953A95E1F7BE
:101800008F70CF70C06ED82FBCCFDD27D0664BCF86
:10181000C1E8D0E448CFC3E8D0E445CFC2EED4E479
:1018200042CFC9EED4E43FCFCAEED4E43CCFC5EBFF
:10183000D4E439CFC6EBD4E436CFC3EBD4E433CF12
:10184000C4EBD4E430CFC7EBD4E42DCFCCECD4E45C
:101850002ACFCDECD4E427CFC3E8D5E424CFCAE81F
:10186000D5E421CFC2E9D5E41ECFC4E9D5E41BCF2E
:10187000C1E2D6E418CFC3E2D6E415CFC4E2D6E481
:1018800012CFC5E2D6E40FCFC6E2D6E40CCFC7E252
:10189000D6E409CFCFE6D4E406CFC0E7D4E403CF43
:1018A000CAE2D6E400CF8238910549F1B0F4813321
:1018B000910509F462C048F48932910509F456C0D3
:1018C0008A32910509F460C008958533910509F4C1
:1018D00046C08933910599F00895833E910531F111
:1018E00038F4803E910591F0823E9105B1F0089563
:1018F000863E910521F1873E910551F10895209191
:10190000B1032370D9F080EE90E008952091B103E7
:1019100020FF14C089E390E008952091B10322FFD5
:101920000DC024FD09C083EE90E008952091B1031D
:1019300022FD31C024FF02C090E080E00895209194
:10194000B10323FFFBCF24FDF7CF87EE90E008958E
:101950002091B10323FFEECF86EE90E00895209111
:10196000B10325FFEBCF89E290E008952091B10308
:1019700025FFE4CF85E390E008952091B10326FF91
:10198000DDCF8AE290E008952091B10326FFD6CF03
:1019900081E390E0089582EE90E008959091B10384
:1019A00092FF06C0282F2871283069F4877F846051
:1019B00093FF06C0282F2871283161F4877E846147
:1019C00094FD877E0895282F2471243089F78B7F1A
:1019D0008860EECF282F2471243191F78B7E8861A7
:1019E000EFCFCF93DF93EC01C13080E8D80770F0E0
:1019F000FB018281882351F00E940A0D0E94180D7C
:101A0000CE019F770E94E40D0E94950D81E0DF9149
:101A1000CF91089580915502811109C08CE090E02A
:101A20000E9410328093560281E0809355020895FF
:101A3000E0910F01F091100180818093690381FF93
:101A400003C081EE0E9471178091690385FF03C076
:101A500085EE0E9471178091690380FF03C080EEBC
:101A60000E9471178091690384FF03C084EE0E9475
:101A700071178091690382FF03C082EE0E94711783
:101A80008091690386FF03C086EE0E9471178091E2
:101A9000690383FF03C083EE0E947117809169037D
:101AA00087FF03C087EE0E94711780915602823033
:101AB00049F158F4882379F0813089F08FE39CE96B
:101AC0000197F1F700C000000895843019F18530C6
:101AD000A9F786EE01C082EE0E948416EFCF80EE59
:101AE0000E94841681EE0E94841688E10E9484166A
:101AF00088E10E94711781EE0E94711780EE0E94AA
:101B00007117DCCF82EE0E94841687E50E9484164E
:101B100087E5F5CF86EE0E94841686EE0E94711747
:101B200088E10E94841688E1EACF809156028130D4
:101B300009F444C08823E1F18230D1F18530E1F12C
:101B40008091690381FF03C081EE0E948416809119
:101B5000690385FF03C085EE0E94841680916903A6
:101B600080FF03C080EE0E9484168091690384FF89
:101B700003C084EE0E9484168091690382FF03C033
:101B800082EE0E9484168091690386FF03C086EE70
:101B90000E9484168091690383FF03C083EE0E9434
:101BA00084168091690387FF0EC087EE0C9484161B
:101BB00082EE0E947117C4CF86EEFBCF8CE20E94AA
:101BC00084168CE2F6CF0895EF92FF921F93CF9385
:101BD000DF937C01CCE0D0E0C7010C2E02C09695CB
:101BE00087950A94E2F7182F1F70812F0E948F07A4
:101BF0000E948416812F0E948F070E9471172497DC
:101C0000CC3F8FEFD80741F7DF91CF911F91FF9025
:101C1000EF900895CF92DF92EF92FF920F931F9370
:101C2000CF93DF93E901662309F466C0E42EF12C1B
:101C3000EFEFF0E0E61BF109EE9D8001EF9D100D46
:101C4000FE9D100D1124212FE12FFF27EE1AFF0A10
:101C50005CE3C52ED12CB6010E94D531FB01BC013D
:101C6000E69EC001E79E900DF69E900D1124B601F0
:101C70000E94D531E230F10589F168F4812F262FD9
:101C8000210F309781F0242F461B319761F080E0BF
:101C900020E040E008C0E430F10551F128F1842F44
:101CA000861B3597A1F7E42FF0E0E255FC4F4491F5
:101CB000E22FF0E0E255FC4F9491E82FF0E0E2557E
:101CC000FC4FE49149839883EA83DF91CF911F9180
:101CD0000F91FF90EF90DF90CF900895862F810FA6
:101CE000E42F412F2E2FDFCFE42FE61B842FF9CFD7
:101CF000842F462F410FD7CF842F242FD4CF88E0B5
:101D000090E00C941832AB01BC0188E090E00C9498
:101D10003632EAE6F3E083E0808311828FEF82833C
:101D20008383148260817181828193810C94830EFC
:101D300060916A0360FF06C066956F7370E090E083
:101D400080E0089560E070E0CB01089580916E031B
:101D500090E001968430910514F083E090E0809348
:101D60006E0360916A0370916B0380916C03909194
:101D70006D030C94830E80916E038150990B97FF35
:101D800002C090E080E08430910514F083E090E0A0
:101D900080936E0360916A0370916B0380916C0372
:101DA00090916D030C94830E80916A03EFE6F3E04B
:101DB00080FF06C06FE070E08FE693E00C949D1406
:101DC000118210821282349683E0EB3AF807C1F751
:101DD000F1CF90916A0390FF0CC0EFE6F3E08183AE
:101DE00060834283349693E0EB3AF907C1F70C9491
:101DF000D40E0895CF93DF9300D000D0CDB7DEB7D7
:101E000020916A0320FF0AC09E012F5F3F4F0E946E
:101E10000A0E4B8169818A810E94E90E0F900F9012
:101E20000F900F90DF91CF9108955F926F927F9204
:101E30008F929F92AF92BF92CF92DF92EF92FF92DA
:101E40000F931F93CF93DF9300D000D0CDB7DEB7B1
:101E50008C01E62EF42E522E80916A0380FF30C052
:101E6000982F9E77923009F03FC09E012F5F3F4F21
:101E7000C8010E940A0E4B8169818A810E94E90E85
:101E800080916A0300FB87F980936A03902F9695EF
:101E900080916B038078892B10FB87F980936B030B
:101EA000E0926C03F0926D03552051F060916A034B
:101EB00070916B0380916C0390916D030E94830E6F
:101EC0000F900F900F900F90DF91CF911F910F9176
:101ED000FF90EF90DF90CF90BF90AF909F908F904A
:101EE0007F906F905F900895E82FE695EF739EE3E3
:101EF0009E0F9F73943018F4F0906D03C1CF9AE356
:101F00009E0F9F73993068F4881F8827881F9091CF
:101F10006B03292F220F022F082B97FB112710F993
:101F2000AFCF87E28E0F8F738A3008F0A9CFE951C7
:101F3000FF0B21E0E0FD2FEFEE7FEC55FC4F85918C
:101F400094916FE070E00E94D53126034001279FF5
:101F5000900C1124580188E9A81A8EEFB80A8FE670
:101F6000C82E83E0D82E98E6692E77247394C50195
:101F7000B3010E94D53196014F2D6E2D0E940A0E9D
:101F8000A80CB91C84E0C80ED11C8BEAC81683E0EB
:101F9000D80669F70E94D40E73CF21E00C94150F78
:101FA000EAE6F3E02081221F2227221F30916B03F3
:101FB000432F440F842F822B37FB992790F90C96DF
:101FC00068E671E00E94E931438162810C94CD0F93
:101FD00020916A03221F2227221F30916B03432F77
:101FE000440F842F822B37FB992790F98C30910571
:101FF00040F4845A9E4F40916D0360916C030C94A1
:10200000CD0F0C9768E671E00E94E931F4CFEAE663
:10201000F3E08081881F8827881F90916B03292F08
:10202000220F97FB992790F943816FEF822B0C9435
:10203000CD0FEAE6F3E08081881F8827881F909102
:102040006B03292F220F97FB992790F9438160E0BA
:10205000822B0C94CD0F40916D03443F90F4445F6C
:1020600080916A03881F8827881F90916B03292F0E
:10207000220F97FB992790F960916C03822B0C94A7
:10208000CD0F4FEFEDCF40916D034C3090F04C50A1
:1020900080916A03881F8827881F90916B03292FDE
:1020A000220F97FB992790F960916C03822B0C9477
:1020B000CD0F40E0EDCF20E00C94150FCF93909121
:1020C0006A0390FF40C09178811131C09260909373
:1020D0006A03662351F060916A0370916B038091EB
:1020E0006C0390916D030E94830EC0916A036C2F64
:1020F00066956F7370E04BE050E084E091E00E94E1
:102100000332892BE1F010927402CC1FCC27CC1F34
:1021100090916B03892F880F97FB992790F9409135
:102120006D0360916C038C2BCF910C945B10853206
:1021300010F09864CCCF8F73880F982BC8CF81E0B4
:1021400080937402E2CFCF91089561E00C945E1009
:1021500080916A0386958F738F5F853208F081E0E6
:102160000C94A51080916A0386958F73815009F4B1
:1021700084E20C94A510EAE6F3E08081816080831C
:1021800086958F730C94A51060E00C945E1080917E
:1021900037038160809337030E944021811104C07E
:1021A0000E94AE210E94890E0E947F0E60936A03F6
:1021B00070936B0380936C0390936D036E7761F45F
:1021C0000E94890E0E947F0E60936A0370936B03D6
:1021D00080936C0390936D0381E0809374028091EF
:1021E0006A0380FF04C086958F730C94C410089511
:1021F000EAE6F3E080818E7F808360817181828155
:1022000093810E94830E109274022FEF80E792E078
:10221000215080409040E1F700C000000C94D40EA3
:1022200080916A0380FD0C94F8100C94BB10CF933E
:10223000C82F80917202909173020E94CB22EC2FE2
:10224000F0E0E056FC4FE491E817190611F008F0B1
:1022500042C00E94BF2290937302809372026091E9
:10226000710270E090E080E00E94D62F20E030E024
:102270004FE753E40E94F92E2BED3FE049E450E490
:102280000E94FF300E946C310E94732F2BE43AE3CE
:102290004EE25FE30E948C2E20EF3BEF48ED52E4CC
:1022A0000E94FF300E94A52F462F80916A03881F4D
:1022B0008827881F90916B03292F220F97FB99275E
:1022C00090F960916C03822B0E94FA0E809171024A
:1022D0008F5F80937102CF910895CF93C82F809123
:1022E0006F02909170020E94CB22EC2FF0E0E35637
:1022F000FC4FE491E817190609F0E8F40E94BF22A8
:102300009093700280936F0240916D0360916C0313
:1023100080916D0290916E020E94FA0E80916D0282
:1023200090916E02019668E671E00E94D53190931B
:102330006E0280936D02CF910895CF92DF92FF924B
:102340000F931F93CF93DF93F82E80916B029091A0
:102350006C020E94CB22EF2DE695F0E0E656FC4F92
:10236000E491E817190609F0A8F50E94BF2290939E
:102370006C0280936B020FE613E0D0E0C0E088E6C9
:10238000C82EDD24D3948091690290916A028C0F4B
:102390009D1FB6010E94D531980140916D03609157
:1023A0006C030E940A0E68960C5F1F4FC83681E0CE
:1023B000D80749F70E94D40E8091690290916A0271
:1023C000F0FE10C00196BE010E94D53190936A02C2
:1023D00080936902DF91CF911F910F91FF90DF9061
:1023E000CF9008950197F2CFCF92DF92EF92FF92B4
:1023F0000F931F93CF93DF93C82FFF24FA9480FD90
:1024000002C0FF24F39480916702909168020E94B9
:10241000CB22C695EC2FF0E0E956FC4FE491E8178B
:10242000190611F008F051C00E94BF229093680273
:10243000809367020FE613E0D0E0C0E0F80111825C
:102440001082128294E0C92ED12CE12C8091660278
:102450008E0D87FD815F082E000C990B8C179D0750
:10246000E9F480916D038C9DA0018D9D500D112488
:10247000559547955595479580916A03881F8827FC
:10248000881F90916B03592F550F97FB992790F94F
:10249000980160916C03852B0E940A0EEF0CF1E00D
:1024A000CF1AD10899F621960C5F1F4FCF30D10576
:1024B00029F60E94D40E8091660291E0F91210C0B4
:1024C00081110CC08EE080936602DF91CF911F9145
:1024D0000F91FF90EF90DF90CF9008958150F3CF50
:1024E00090E00196BE010E94E931EDCF0F931F935A
:1024F000CF93DF93C82F80916402909165020E9470
:10250000CB22EC2FF0E0EC56FC4FE491E8171906D3
:1025100011F008F052C00E94BF2290936502809390
:102520006402CFE6D3E0FE0111821082128234965B
:1025300083E0EB3AF807C1F710E000E08091630216
:10254000082E000C990B08171907E4F1809103017C
:10255000082E000C990B80179107A4F180916A0353
:10256000881F8827881F90916B03592F550F97FB61
:10257000992790F99E0140916D0360916C03852B22
:102580000E940A0E0F5F1F4F24960F301105B1F6FF
:102590000E94D40E8091020190916302980F909353
:1025A000630220910301280F20930301121614F4F3
:1025B0009E301CF0819580930201DF91CF911F9195
:1025C0000F910895198218821A82DCCFEF92FF9240
:1025D0000F931F93CF93DF938091610290916202DA
:1025E0000E94CB22883E9340C8F10E94BF22909364
:1025F000620280936102C0915F02D09160022196D5
:10260000C170DD27D0936002C0935F028FE6E82E91
:1026100083E0F82E10E008E7812F86958C0F9D2F20
:10262000911D81709927970140916D0360916C0312
:10263000FC010E9FC0010F9F900D11240E940A0EF5
:102640001F5FF4E0EF0EF11C1F3031F7DF91CF91E7
:102650001F910F91FF90EF900C94D40EDF91CF91CA
:102660001F910F91FF90EF900895CF93DF9300D0CB
:1026700000D0CDB7DEB780915D0290915E020E94DE
:10268000CB22E2E9F3E02591349182179307C0F160
:1026900080915C0281110CC09E012F5F3F4F4FEF74
:1026A0006FEF90E080E00E940A0E8A8180935C02C6
:1026B0000E94BF2290935E0280935D0280915B0234
:1026C000813071F0882339F040E0823011F440917C
:1026D0005C0280E003C080915C0240E060E004C0E6
:1026E00060915C0240E080E00E94E90E80915B0214
:1026F00090E0019663E070E00E94E93180935B0214
:102700000F900F900F900F90DF91CF9108950F933E
:102710001F93CF93DF938091590290915A020E94A8
:10272000CB22843F9140D8F10E94BF2290935A025D
:1027300080935902CFE6D3E010E000E040915702C9
:102740005091580260916C0380916A03282F221FD8
:102750002227221F90916B03892F880F822B97FBD2
:10276000992790F907301105FCF4452BF9F09E01EB
:1027700040916D030E940A0E0F5F1F4F24960F3089
:102780001105E1F60E94D40E8091570290915802F3
:102790000196817099279093580280935702DF9198
:1027A000CF911F910F910895452B09F39E0140E0B1
:1027B000E1CF809174028823D1F190916A03892F2F
:1027C00086958F732EE3280F2F73243018F48250D0
:1027D0000C9417112AE3280F2F73233018F4865016
:1027E0000C946D1127E3280F2F73263018F48950AD
:1027F0000C949D1121E3280F2F73263018F48F506D
:102800000C94F4112BE2280F2F73233018F4855108
:102810000C9476129E77903311F40C94E612963451
:1028200011F40C943513983411F40C948713089513
:102830008823B9F05198599A5098589A95E09A95EA
:10284000F1F70000509A589895E09A95F1F700003A
:10285000882311F0519A599885E08A95F1F7000084
:102860000895519A5998E8CF8BB18C7F8BB95098C5
:10287000589A5198599A85E08A95F1F70000089581
:102880008AB18C7F8AB985E08A95F1F70000519A68
:10289000599885E08A95F1F70000509A589885E09C
:1028A0008A95F1F7000008955098589A85E08A9526
:1028B000F1F700005198599A85E08A95F1F70000E8
:1028C0000895CF93DF93D82FC8E08D2F80780E9492
:1028D0001814DD0FC150C9F780E00E94181485E07C
:1028E0008A95F1F7000085E08A95F1F7000080E015
:1028F000DF91CF9108953BB1242F209523233BB145
:10290000432B3FB7F894680F791F8617970711F488
:102910003FBF0895FC015191CF01E8E04BB90000A1
:1029200000C057FF2BB9550F000000C000C000C009
:102930002BB900C0EA9591F7E8CFAF92BF92CF9242
:10294000DF92EF92FF920F931F93CF93DF937C015F
:102950008B01CFB6D090BC00F8948091BC008B7FE7
:102960008093BC000E9434140E94401484E80E94AA
:102970006114000F111F000F111F5701A00EB11E8F
:10298000E701CA15DB05A9F40E945414CFBED0920A
:10299000BC00579A40E8B801C701DF91CF911F9161
:1029A0000F91FF90EF90DF90CF90BF90AF900C947D
:1029B0007B1489910E946114E4CF90937A028093F2
:1029C00079020895E0917902F0917A02309721F02E
:1029D0000190F081E02D099480E00895E091790262
:1029E000F0917A02309799F020912001222359F03A
:1029F0002091B10327FF07C0DC012C9111962C9385
:102A0000119725E02C930280F381E02D099408951D
:102A1000E0917902F0917A02309739F022E0DC01FE
:102A20002C930480F581E02D09940895209177027C
:102A3000309178022817390771F0909378028093CB
:102A40007702E0917902F0917A02309721F00680C6
:102A5000F781E02D09940895209175023091760256
:102A60002817390771F09093760280937502E091F0
:102A70007902F0917A02309721F00084F185E02DFF
:102A80000994089585B7806885BF85B7806885BF3C
:102A9000089508950E9442150C94491581E0089507
:102AA0000E94B6220E94A8030E944B230C94C710D8
:102AB000BF92CF92DF92EF92FF920F931F93CF932B
:102AC000DF93CDB7DEB72A970FB6F894DEBF0FBEFF
:102AD000CDBF0E9477040E944E15882309F471C06F
:102AE0008CE7C82E82E0D82E10E000E0B02E802FB8
:102AF0000E94B604E82EF601F1906F01F81609F471
:102B00005AC08091370381FD0E94BC0490E080E0B0
:102B1000FE242F2D30E0482FB901082E02C07595F4
:102B200067950A94E2F760FF41C08E83BF8281E01F
:102B300090E06C0102C0CC0CDD1C4A95E2F72E2D12
:102B400030E02C213D21232B09F480E088870E946E
:102B5000BF228160782F9A8789874E815F8168853F
:102B60008A850E943A16F801E458FD4F80818C2531
:102B700080830E94D4240E94E21490917B028917E2
:102B800089F10E94E21480937B022A960FB6F89492
:102B9000DEBF0FBECDBFDF91CF911F910F91FF9090
:102BA000EF90DF90CF90BF900C94A00701968630F5
:102BB000910509F0B0CF0F5F1F4F0E30110509F0DE
:102BC00095CF8FEF89838A831B820E94BF22816009
:102BD000782F9D838C8349815A816B818D810E94DE
:102BE0003A16C7CF2A960FB6F894DEBF0FBECDBFF8
:102BF000DF91CF911F910F91FF90EF90DF90CF90D9
:102C0000BF900895CF93DF93DC018C91682F70E023
:102C100021E030E001C0220F8A95EAF711964C912D
:102C2000119750E0EA01C657DD4F988112968C91BA
:102C300012978823C9F080919A028823C1F086E018
:102C4000849FF001859FF00D1124E60FF71FEE0F12
:102C5000FF1FEF5DFE4F408151814D935C93292B07
:102C60002883DF91CF910895892F8223E6CF209585
:102C70002923F6CFCF93DF93CDB7DEB72B970FB6CF
:102C8000F894DEBF0FBECDBF4F83588769877A8720
:102C90008B878A859B85892B21F0CA0189238F3FE9
:102CA000E1F41E821D8285E0FE013796DE01119659
:102CB00001900D928A95E1F749815A816B817C815F
:102CC0008D819E810E94591D2B960FB6F894DEBF10
:102CD0000FBECDBFDF91CF910895CE0107960E9420
:102CE0000216DFCFFC01808191810E941220929513
:102CF0009F70963041F480919A0291E089278093E9
:102D00009A02909399020895CF93C82F882309F4CB
:102D1000E6C08238C1F40E94E21481FDE0C089E37C
:102D20000E9440200E9484202FEF81EE94E02150E9
:102D300080409040E1F700C0000089E30E944720F6
:102D4000CF910C9484208338A1F40E94E21480FD7A
:102D5000C6C083E50E9440200E9484202FEF81EEB0
:102D600094E0215080409040E1F700C0000083E5EE
:102D7000E5CF8438A1F40E94E21482FDB0C087E45C
:102D80000E9440200E9484202FEF81EE94E0215089
:102D900080409040E1F700C0000087E4CFCF8CEF87
:102DA0008C0F813A48F48C2F0E94F026811197C035
:102DB0008C2F0E944020C4CF80E28C0F883048F4D2
:102DC000C77081E001C0880FCA95EAF70E94BA2057
:102DD000B7CF8BE58C0F833068F481E890E0C53A7B
:102DE00031F083E890E0C63A11F482E890E0CF91A8
:102DF0000C94161588E58C0F873108F068C082EEB8
:102E000090E0C83A09F460C089EE90E0C93A09F44C
:102E10005BC08AEE90E0CA3A09F456C085EB90E0B8
:102E2000CB3A09F451C086EB90E0CC3A09F44CC09F
:102E300083EB90E0CB3B09F447C084EB90E0CC3BC4
:102E400009F442C087EB90E0CD3AF1F18CEC90E0D0
:102E5000C03BD1F18DEC90E0CE3AB1F183E891E046
:102E6000CF3A91F18AE891E0C13B71F182E991E0BA
:102E7000C23B51F184E991E0C33B31F181E292E040
:102E8000C43B11F183E292E0C53BF1F084E292E0B1
:102E9000C63BD1F085E292E0C73BB1F086E292E01A
:102EA000C83B91F087E292E0C93B71F08FE690E079
:102EB000CD3B51F080E790E0CE3B31F090E080E0F8
:102EC000CA3B11F48AE292E0CF910C942C15C03FDA
:102ED00030F08C2F0E94E223CF910C94C924CF9123
:102EE0000895882309F452C0823871F40E94E214D4
:102EF00081FF4CC089E30E9440200E94842089E326
:102F00000E9447200C948420833859F40E94E214D4
:102F100080FF3CC083E50E9440200E94842083E51E
:102F2000EFCF843859F40E94E21482FF2FC087E467
:102F30000E9440200E94842087E4E2CF9CEF980FFB
:102F4000913AF0F290E2980F983050F4877091E047
:102F500001C0990F8A95EAF7892F0E94C020D2CF2D
:102F60009BE5980F933020F490E080E00C941615C8
:102F700098E5980F973120F490E080E00C942C15A0
:102F8000803F20F00E944A240C94C924089588238D
:102F900021F00E94BA200C9484200895882321F007
:102FA0000E94C0200C94842008958F929F92AF922B
:102FB000BF92CF92DF92EF92FF920F931F93CF9326
:102FC000DF937C01D62FC72FFC01058102950F707E
:102FD000128111110E94D7200E947D20C82E8823C3
:102FE00071F01123B1F080E28D0F883090F082E013
:102FF0000E9467200E947D2091E0C82EC926DC2E09
:10300000D2949FE0D922ED2DF0E0E459FD4C0C94D0
:10301000FD31C12CF4CF0C2F0F70C07F11F0029541
:10302000007F1123A9F0002359F080E28D0F883032
:1030300010F0D11109C0802F0E94BA200E94842074
:103040008D2F0E94841614C0802F0E94CA20F6CFB4
:103050008D2F0E947117002359F080E28D0F883068
:1030600010F0D11133C0802F0E94C0200E94842014
:10307000F8E0DF1639F0DF1648F086EF8D0D8F701F
:10308000823020F40E94E2140E94A007CC2009F4B0
:1030900027C20E945A2080FD23C2F70112820E949B
:1030A00054200E94DD1EC7010E947D1A0E945420F8
:1030B000DF91CF911F910F91FF90EF90DF90CF9014
:1030C000BF90AF909F908F900C94FE1E802F0E9417
:1030D000D020CCCFFC2FFF70BF2EC07FC03219F0A4
:1030E000B29480EFB822DD2339F0D13019F11123E9
:1030F00059F1002321F1A4CF112381F0011106C061
:103100000E94F0208B290E94C717B2CF0130C1F76F
:103110000E94F0208B290E94EA20AACF011106C04C
:103120000E94ED208B2D0E94CE17A2CF013009F412
:103130009FCFF6CF112329F0023008F099CF8B2DC5
:10314000E2CF011195CFEECF002361F38D2F0E94C6
:1031500071178ECF8C2F86958695837069F081309C
:1031600009F086CF8D2F9C2F9370111102C090E033
:1031700080E00E942C157CCF8D2F9C2F9370111115
:1031800002C090E080E00E94161572CF112309F171
:10319000D53F99F0D63FB9F0D43F49F48091AB03C5
:1031A0009091AC0381609093AC038093AB038D2F1F
:1031B0000E94E2230E94C9245BCF8091AB039091CF
:1031C000AC038260F0CF8091AB039091AC0384603C
:1031D000EACFD53F89F0D63FA9F0D43F49F480919A
:1031E000AB039091AC038E7F9093AC038093AB03C1
:1031F0008D2F0E944A24DECF8091AB039091AC03C7
:103200008D7FF2CF8091AB039091AC038B7FECCF9D
:103210008C2F837009F047C011112ACF2D2F2295D2
:1032200026952770220F220F6D2F6F70862E912CFE
:10323000B12CA12C022E04C0880C991CAA1CBB1C0A
:103240000A94D2F760E070E0CB01D4FF0FC06FE0CA
:1032500070E080E090E004C0660F771F881F991F20
:103260002A95D2F76095709580959095C695C695EC
:10327000C370C23051F080F4682979298A299B29CA
:10328000C13071F00E948F1EF3CE682979298A29F6
:103290009B290E94A11EECCE0E948F1EC501B40185
:1032A0000E947D1EE5CE8695112311F08C2F817032
:1032B000882309F4DDCE2D2F229526952770220F25
:1032C000220F6D2F6F70862E912CB12CA12C022E07
:1032D00004C0880C991CAA1CBB1C0A94D2F760E09D
:1032E00070E0CB01D4FF0FC06FE070E080E090E0B1
:1032F00004C0660F771F881F991F2A95D2F7609523
:10330000709580959095C695C695C370C23051F062
:1033100080F4682979298A299B29C13071F00E949B
:10332000541FA6CE682979298A299B290E94661FE5
:103330009FCE0E94541FC501B4010E94421F98CE27
:10334000E0E2ED0FE53108F04CC0F0E0E458FD4C50
:103350000C94FD31DF708C2F8F71112321F00E94AE
:10336000DD1E8D2FD0CE0E94FE1E8D2FDCCE1123B0
:1033700039F001117DCE8C2F8F710E94211F78CEE4
:10338000023008F075CEF7CF8C2F8F71112339F0F2
:103390000E94DD1E6DCE8C2F8F711123C9F30E9408
:1033A000FE1E66CE112329F08C2F8F710E94C81E3D
:1033B0005FCE0E94C31E5CCE112349F0CF718C2FCB
:1033C0000E94DD1E63E08C2F0E945E2051CE81E0C2
:1033D0000E946720023008F44BCE82E00E946720F2
:1033E00047CE112329F001112BCE8C2F8F71D0CF16
:1033F000002369F0D93309F0A9CE2FEF87EE93E0CF
:10340000215080409040E1F700C000009FCE8C2FFB
:103410008F71C5CF4C2F4F706D2FC7010E94770A57
:103420000E94F31D25CED23F71F1C8F4D03F01F1C7
:10343000D13FB9F180919902002309F446C0882355
:1034400041F080919A0291E0892780939A0210922C
:1034500099028D2F112389F10E94841616C0D43F42
:10346000D9F078F0D53F31F711110FC081E006C0D7
:10347000112359F080919A0291E0892780939A0252
:1034800004C081E0182710939A024C2F4F706D2FC3
:10349000C7010E947A0AECCD1111F7CF10929A025F
:1034A000F4CF112339F080919902882319F31092F7
:1034B0009902EBCF0023F1F2E8CF0E94711786E06A
:1034C000F70111928A95E9F7E0CF8823F1F2111103
:1034D000DCCF80919A0291E0892780939A02E7CF0E
:1034E000DF91CF911F910F91FF90EF90DF90CF90E0
:1034F000BF90AF909F908F9008950F931F93CF939D
:10350000DF93EC018B819C81892B29F08881998143
:1035100089238F3F29F4DF91CF911F910F91089557
:10352000CE010E94B2078823B1F3688179818A8134
:103530000E941C208C010E94781F0E947A1EB801F4
:10354000CE01DF91CF911F910F910C94D5170E945E
:10355000D7200E94E7200E944E200E9484200E94D3
:1035600067250E94C92490E080E00E94161590E033
:1035700080E00C942C150E94C7200C94A71A0E947E
:103580001220E92FE295EF70E250EE3070F4F0E097
:10359000EF56FD4C0C94FD31803F19F020F4803E35
:1035A00020F481E00895843FE1F380E00895803EB7
:1035B000C0F3813FD1F7F5CF93FB882780F90895B9
:1035C000CF93DF9300D000D00F92CDB7DEB70F902E
:1035D0000F900F900F900F90DF91CF910895CF93A0
:1035E000DF9300D000D000D0CDB7DEB726960FB65F
:1035F000F894DEBF0FBECDBFDF91CF9108951F932A
:10360000CF93DF93C0919B0216E080919C028C13B4
:1036100004C0DF91CF911F910895D0E01C9FF0016D
:103620001D9FF00D1124E356FD4F408151816281B1
:103630007381848195810E94EF1A2196C770E5CF2E
:103640004091CD025091CE026091CF027091D00294
:103650008091D1029091D2020C94EF1A1F93CF93D4
:10366000DF938091D202807FC1F48091CF028823C2
:10367000A1F080919B02C0919C026091CD0270915B
:10368000CE024091D0025091D102D62FD723DA0139
:10369000A095B09516E0C81304C0DF91CF911F919B
:1036A000089590E04115510511F0DF3F31F4019686
:1036B0008770F1CF2A0F3B1F17C0189FF001199F89
:1036C000F00D1124E356FD4F21812713F0CF208107
:1036D0002613EDCF22812111EACF238134812417D3
:1036E000350740F3241B350B283C310500F72091AA
:1036F000D2022F7020612093D20226E0289FF00191
:10370000299FF00D1124EE55FD4F80818F7080614F
:1037100080838DEC92E00E947D1ADF91CF911F9102
:103720000C94FF1ABF92CF92DF92EF92FF920F9309
:103730001F93CF93DF93CDB7DEB761970FB6F894A1
:10374000DEBF0FBECDBF8C0185E0F801DE011D9606
:1037500001900D928A95E1F7D8014C9111965C91F8
:1037600011971296EC9012978091D0029091D1020D
:10377000009709F47FC12091CD023091CE02622FD3
:1037800063236F3F09F476C11396CD90DC90B0901F
:10379000CF02BB2009F411C1C816D906D0F1F60139
:1037A000E81BF90BCF01FF24F394883C910508F046
:1037B000F12C8091D202982F907FFF2009F4B8C09D
:1037C00091117FC0FE2C351329C0241327C0E110AE
:1037D00025C08F7080618093D2020E94201B8DECE7
:1037E00092E00E947D1A8091D202D80115968C93A6
:1037F0008F2D61960FB6F894DEBF0FBECDBFDF915F
:10380000CF911F910F91FF90EF90DF90CF90BF90DD
:103810000895809590958C0D9D1DC5CFCD2829F0DC
:10382000852F84238F3F09F041C180E0B82FB1700C
:10383000DB2E80FF3CC080919B0220919C0236E0F1
:10384000821315C04D875E878D859E850E9412204C
:10385000292F22952F702230F0F0243018F59F7018
:10386000F1F0F8019581907FD1F4D12C1EC090E049
:10387000389FF001399FF00D1124E356FD4F61810F
:10388000651306C06081641303C06281E6120FC035
:1038900001968770D5CF9F7011F0882331F3805E39
:1038A000883018F3C8010E947D1AFD2CA1CFEE20AC
:1038B00009F49ECF8091D20281608093D202F12CD4
:1038C00097CF351306C0241304C0D801EE2009F4A5
:1038D0009AC04D875E878D859E850E94BF1A88237A
:1038E00019F1EE2009F18091D202803270F020911E
:1038F000CD023091CE0238872F831986DB86CA86A7
:103900008C87CE0107960E947D1A86E0F801ADEC07
:10391000B2E001900D928A95E1F70E942E1B0E9461
:10392000201BFF24F39464CFC8010E947D1AF9CFB5
:10393000911113C07C2DD98AC88A6E2D89890E9465
:10394000E01A8DEC92E00E947D1A86E0EDECF2E048
:10395000DF011D928A95E9F763C0351312C0241365
:1039600010C0E1100EC0F8018583C8010E947D1AC5
:10397000EDECF2E086E0DF011D928A95E9F7FB2C81
:1039800037CF4D875E878D859E850E94BF1A88231D
:1039900059F2EE2049F28091D202803208F4B5CF7C
:1039A0002091CD023091CE023A8329831B82DD82A1
:1039B000CC828E83CE010196A6CFC816D90698F187
:1039C000F601E81BF90BCF01F12C883C910508F0BA
:1039D00049C0FE2CEE2009F4A7CF351332C02413C2
:1039E00030C08091D20280FD23C0982F907F01F1DA
:1039F000D80115968C931597903F39F0982F907FAA
:103A0000905F8F70892B15968C93C8010E947D1A48
:103A100086E0F801ADECB2E001900D928A95E1F7F5
:103A20000E94201BE5CE809590958C0D9D1DCCCFDE
:103A300086E0F801ADECB2E001900D928A95E1F7D5
:103A4000D7CE4D875E878D859E850E94BF1A8111D6
:103A50005CCF8091D20281608093D202C8010E9423
:103A60007D1AC6CE7C2DD98AC88A6E2D89890E947E
:103A7000E01A6BCFEE2009F457CF4D875E878D8516
:103A80009E850E94BF1AF82E882309F44DCF86E048
:103A9000F801ADECB2E001900D928A95E1F78DEC62
:103AA00092E00E9472160E942E1BBACF81E08E25F2
:103AB000BDCE1F93CF93DF93CDB7DEB72C970FB654
:103AC000F894DEBF0FBECDBF4F83588769877A87D2
:103AD0008B879C87CE0107960E94921B882369F0F2
:103AE0008A859B85892B39F04F815885842F8523C2
:103AF0008F3F09F071C016E05FC086E0FE01379687
:103B0000DE01119601900D928A95E1F78A859B85D9
:103B1000892B89F388859F8189238F3F61F32091C9
:103B20009C0230E0C90101968770992740919B0261
:103B30004817190671F40E94BB1A10929C02109249
:103B40009B0286E0EDECF2E0DF011D928A95E9F739
:103B5000D2CF96E0929FD001939FB00D1124A3562F
:103B6000BD4FFE01319601900D929A95E1F7809339
:103B70009C020E94FF1ABFCF819FC001112483566F
:103B80009D4F0E94921B8823E9F0E0919B021E9FAB
:103B9000F0011124E356FD4F408151816281738110
:103BA000848195810E94EF1A80919B0290E001969A
:103BB0008770992780939B0280919B0290919C0231
:103BC0008913DACF2C960FB6F894DEBF0FBECDBFA7
:103BD000DF91CF911F91089569857A858B859C85AA
:103BE0000E94EF1A88CFEF92FF920F931F93CF930B
:103BF000DF938C01892B81F0F12CEE24E394E80112
:103C00002196F8018491843770F4843008F05FC005
:103C10008130B1F08230A1F1DF91CF911F910F91EE
:103C2000FF90EF900895853709F44CC008F43DC02B
:103C30009CE7980F903780F78F770E94711749C0E3
:103C40000E5F1F4FFE01849190E2980F983060F450
:103C50008770FE2D01C0FF0F8A95EAF78F2F0E9413
:103C6000DA200E94842002C00E9484168F2D815089
:103C700030F2EFE9FFE03197F1F700C00000F7CF35
:103C80000E5F1F4FFE01849190E2980F983050F420
:103C90008770FE2D01C0FF0F8A95EAF78F2F0E94D3
:103CA000E020DFCF0E947117E1CF0E5F1F4FFE01B2
:103CB000C491C150D8F28FE99FE00197F1F700C09D
:103CC0000000F7CF0E5F1F4FFE01F490CFCF0E9490
:103CD00084168E01CBCF08950C946B1E0E946C1E2F
:103CE00060930E0370930F0380931003909311035E
:103CF0000C94A71A08950C946E1E0F931F930091B5
:103D00000E0310910F032091100330911103602BCB
:103D1000712B822B932B1F910F910C946E1E0F937E
:103D20001F9300910E0310910F0320911003309107
:103D3000110360237123822393231F910F910C940D
:103D40006E1E0F931F9300910E0310910F0320918D
:103D500010033091110360277127822793271F9149
:103D60000F910C946E1E0C946B1E0C94B31E0E944B
:103D7000B51E60930A0370930B0380930C0390931A
:103D80000D030C94A71A60E070E0CB010C94B71EF1
:103D90000F931F9341E050E060E070E08A019B01C7
:103DA00004C0000F111F221F331F8A95D2F7C901CB
:103DB000B8011F910F910C94B71E0F931F9341E010
:103DC00050E060E070E004C0440F551F661F771F8D
:103DD0008A95D2F780910A0390910B03A0910C036E
:103DE000B0910D038A019B01082B192B2A2B3B2B29
:103DF000C901B8011F910F910C94B71E0F931F9327
:103E000041E050E060E070E004C0440F551F661FC1
:103E1000771F8A95D2F7CB01BA016095709580958E
:103E2000909500910A0310910B0320910C0330919F
:103E30000D0360237123822393231F910F910C9410
:103E4000B71E0F931F9341E050E060E070E004C0A4
:103E5000440F551F661F771F8A95D2F780910A037A
:103E600090910B03A0910C03B0910D038A019B016B
:103E7000082719272A273B27C901B8011F910F914D
:103E80000C94B71E0F931F9300910A0310910B031C
:103E900020910C0330910D03602B712B822B932BFF
:103EA0001F910F910C94B71E0F931F9300910A035B
:103EB00010910B0320910C0330910D0360237123AB
:103EC000822393231F910F910C94B71E0F931F937E
:103ED00000910A0310910B0320910C0330910D0304
:103EE00060277127822793271F910F910C94B71E8B
:103EF0000895E92FEE0FE90FEE0F8E0F982F9770B0
:103F000041E001C0440F9A95EAF78695869586951B
:103F100095E0899FF0011124ED52FD4F30E020E043
:103F200070E05191DF011197CB01022E02C09695EE
:103F300087950A94E2F781708195852784238527E8
:103F40008C932F5F3F4F2530310559F70895E92FA6
:103F5000EE0FE90FEE0F8E0F982F977086958695CE
:103F6000869525E0829FF0011124ED52FD4F50E02F
:103F700040E080E0219130E0092E02C0369527957F
:103F80000A94E2F721703327042E01C0220F0A940D
:103F9000EAF7822B4F5F5F4F4530510559F708957F
:103FA000BF92CF92DF92EF92FF920F931F93CF9326
:103FB000DF938C01C0900A03D0900B03E0900C03B8
:103FC000F0900D0380910E0390910F03A0911003C8
:103FD000B0911103C82AD92AEA2AFB2ACFE1D0E0FE
:103FE000BC2ED701C6010C2E04C0B695A795979597
:103FF00087950A94D2F780FD0EC0219788F7B12CDF
:104000008B2DDF91CF911F910F91FF90EF90DF905B
:10401000CF90BF900895B8018C2F0E94970A019706
:1040200061F3EECFCF93DF93EC010E94D01FBE016E
:10403000DF91CF910C94970A1F93CF93DF93EB01FD
:1040400090919802992331F0CB01DF91CF911F918C
:104050000C941220882379F0CB010E94D01F182FD6
:10406000682FCE010E94791FBE01812FDF91CF9171
:104070001F910C94970ACB010E94A71F182FF4CF11
:10408000682F80910F01909110010C941422682FD9
:1040900080910F01909110010C941F2280910F01CB
:1040A000909110010C942A22809112038595859598
:1040B00085950895809112038770089598E0899FEF
:1040C00090011124622B609312030C94DD1E9091D9
:1040D00012038095892380931203282F277061F49F
:1040E000282F082E000C330B9217130629F0859504
:1040F000859585950C94FE1E0895909112039770F6
:1041000081E009F480E00895E0910F01F091100141
:10411000809136038083E0910F01F091100180813E
:1041200090913503892B8083E0910F01F09110016C
:10413000808190913403892B80839091130399237C
:1041400081F0E0910F01F09110018081892B808333
:1041500080910F01909110010E94B0218111109265
:10416000130380910F01909110010C94EE14809133
:104170003603089590913603892B80933603089572
:10418000809590913603982390933603089510926A
:104190003603089590913503892B80933503089554
:1041A000809590913503982390933503089510924C
:1041B0003503089590913403892B80933403089537
:1041C000809590913403982390933403089510922E
:1041D00034030895809313030895109213030895F0
:1041E000809113030895CF92DF92EF92FF926C01BA
:1041F000EE24FF2420E0C114D104E104F10419F0FD
:10420000C701B60120E1C72ED82EE92EFF24C11424
:10421000D104E104F10419F0285FC701B6016B0174
:104220007C0154E0F694E794D794C7945A95D1F75B
:10423000C114D104E104F10419F02C5FC701B601E7
:104240006B017C0142E0F694E794D794C7944A95B9
:10425000D1F7C114D104E104F10419F02E5FC701B4
:10426000B6019695879577956795672B682B692B8F
:1042700009F02F5F822FFF90EF90DF90CF9008958D
:1042800090E080E00E941E3221E08D3E9E4F09F0BA
:1042900020E0822F089582E090E00C94103283E0B9
:1042A00090E00C94103284E090E00C941032682F6F
:1042B00084E090E00C942432AB01BC018FE090E0EC
:1042C0000C943632AB01BC0183E190E00C943632A1
:1042D00060E070E0CB010C94622160E070E0CB0103
:1042E0000E945C210C9468216DEE7EEF90E080E0EE
:1042F0000E94423260E082E090E00E94243260E05E
:1043000083E090E00E94243210920E0310920F037B
:10431000109210031092110360E084E090E00E947C
:10432000243260E085E090E00E94243260E086E084
:1043300090E00E9424326FEF87E090E00E942432E8
:1043400040E050E0BA0188E090E00E94363260E040
:104350008DE090E00E9424320C946D210C94742125
:10436000FC01329680912001882321F08091B103D5
:104370009EE187FF96E080E0915008F40895219136
:104380002223D1F38F5FF8CF9C01FC0132969FEF7F
:1043900080E04191461751F09F3F19F4411101C04F
:1043A000982F8F5F8630A9F79F3F09F40895290F52
:1043B000311D97FD3A95F90162830895FC0132960B
:1043C00008962191261303C0DF0111971C92E8176C
:1043D000F907B9F70895E62FE695E695E695EE31EB
:1043E00068F4E80FF92FF11D677021E030E001C09B
:1043F000220F6A95EAF78281822B82830895E62F45
:10440000E695E695E695EE3170F4E80FF92FF11D8B
:10441000677021E030E001C0220F6A95EAF720952D
:10442000828128232283089520912001222329F0CC
:104430002091B10327FD0C94EB210C94C421209111
:104440002001222329F02091B10327FD0C94FF21A4
:104450000C94DE21FC01329680912001882351F0DA
:104460008091B10387FF06C08EE1DF011D928A951E
:10447000E9F7089586E0F9CF08950C943C220E9454
:104480003D228091B703843049F11092380388E1CE
:1044900090E020E40FB6F894A895809360000FBEDA
:1044A0002093600080E00E94A0070E943D2283B715
:1044B000817F846083BF83B7816083BF7894889550
:1044C00083B78E7F83BF0FB6F894A8958091600064
:1044D000886180936000109260000FBE0895089577
:1044E000CF930E94CB030E9477040E946F22C0E00A
:1044F0008C2F0E94B604811105C0CF5FCE30C1F76A
:10450000CF91089581E0FCCF08950C9484220E94FD
:10451000BB1A0E94E2140E94A0070C9485221F92ED
:104520001FB61F9211248F939F93AF93BF938091D7
:104530003803811113C08091AD039091AE03A09117
:10454000AF03B091B0034196A11DB11D8093AD039F
:104550009093AE03A093AF03B093B003BF91AF911C
:104560009F918F911F901FBE1F90189582E084BD70
:1045700093E095BD9AEF97BD80936E0008952FB795
:10458000F8948091AD039091AE03A091AF03B091E8
:10459000B0032FBF0895CF92DF92EF92FF920F9357
:1045A0001F932FB7F8944091AD035091AE036091E3
:1045B000AF037091B0032FBF6A017B01EE24FF248B
:1045C0008C0130E020E0C016D106E206F30650F080
:1045D000481B590BCA011F910F91FF90EF90DF907C
:1045E000CF90089541505109F3CF78941F921FB690
:1045F0001F9211248F939F93AF93BF938091AD032C
:104600009091AE03A091AF03B091B0030196A11DAC
:10461000B11D8093AD039093AE03A093AF03B0930D
:10462000B003BF91AF919F918F911F901FBE1F90BC
:104630001895F89481E08093E00080E28093D800A0
:10464000E9ECF0E010828FE19EE40197F1F700C001
:1046500000001DBA109268001CBC10BE1FBA109258
:104660007A0010926E0010926F00109271001092FA
:1046700072001082ECEBF0E0108214B817B81AB890
:104680001DB810BA108215B818B81BB81EB811BAE8
:104690000C94003F08950E944021811102C00E94A5
:1046A000AE210E944B21809337030E94532190E05A
:1046B0009093B2038093B1030E944F21682F70E062
:1046C00090E080E00C947B1E80913C0380FF12C040
:1046D000609114018AE0689FB00111247595679577
:1046E000759567956038710580F56115710579F1EB
:1046F000862F089581FF07C06091140185E0689FAF
:10470000B0011124EFCF6091140182FD0AC08091A5
:104710003D038823B9F0909113016091140189172A
:1047200010F08AE0ECCF869FB00111248AE0869FCA
:104730009001879F300D1124692F70E0C9010E94FC
:10474000E931D0CF6AE070E0D3CF8FE7089581E000
:10475000089580913C0380FF0CC06091120170E0CD
:1047600075956795759567956115710549F1862F62
:10477000089581FF06C06091120170E075956795FC
:10478000F3CF6091120182FD0BC090913D039923FC
:10479000A1F06091110180911201961738F0682FF5
:1047A00070E06038710500F38FE70895899FC001BC
:1047B000112470E00E94E931F4CF61E070E0D7CFBE
:1047C00081E00895803F31F40E94642381958093B5
:1047D00041030895813F19F40E946423F8CF823F7A
:1047E00031F40E9464238195809340030895833FB0
:1047F00019F40E946423F8CF893F29F40E94A92369
:104800008093420308958A3F21F40E94A923819551
:10481000F7CF8B3F31F40E94A92381958093430306
:1048200008958C3F19F40E94A923F8CF843F31F4F6
:1048300080913F03816080933F030895853F21F479
:1048400080913F038260F7CF863F21F480913F0340
:104850008460F1CF873F21F480913F038860EBCFE4
:10486000883F21F480913F038061E5CF8D3F31F493
:1048700080913C03816080933C0308958E3F21F436
:1048800080913C038260F7CF8F3FB9F780913C0362
:104890008460F1CF90914003803F41F480914103C7
:1048A00087FD10924103992371F00895813F29F407
:1048B000809141031816ACF3F6CF823F81F497FF45
:1048C000F2CF109240038091410390914203892BD3
:1048D00090914303892B49F710923D030895833F3C
:1048E00019F4191674F3DFCF893F39F4809142032C
:1048F0001816CCF610924203D6CF8A3F29F4809145
:10490000420387FFD0CFF6CF8B3F39F4809143032A
:1049100087FFC9CF10924303C6CF8C3F29F4809103
:1049200043031816BCF3BFCF843F31F480913F039B
:104930008E7F80933F03B7CF853F21F480913F0363
:104940008D7FF7CF863F21F480913F038B7FF1CF9E
:10495000873F21F480913F03877FEBCF883F21F48D
:1049600080913F038F7EE5CF8D3F31F480913C03F2
:104970008E7F80933C0397CF8E3F21F480913C0340
:104980008D7FF7CF8F3F09F08ECF80913C038B7FD7
:10499000F0CF8EE393E00E9408150E94BF2290930F
:1049A0003A038093390308951F93CF93DF93809147
:1049B000390390913A030E94CB22AC0190913D03C0
:1049C0002091150130E0911106C020913B038AE04F
:1049D000289F900111244217530778F0209140033B
:1049E000D091410310914203C0914303211109C0AA
:1049F0008D2F812B8C2B09F066C0DF91CF911F91F9
:104A000008959F3F19F09F5F90933D03121624F481
:104A10000E946423809340038091400387FF05C078
:104A20000E9464238195809340031D1624F40E9404
:104A30006423809341038091410387FF05C00E9456
:104A40006423819580934103309140033323C1F067
:104A5000209141032223A1F045EB3403C00111242E
:104A6000892F911101C081E08093400345EB24031D
:104A700090011124832F311101C081E08093410303
:104A8000111624F40E94A9238093420380914203CB
:104A900087FF05C00E94A9238195809342031C16BD
:104AA00024F40E94A923809343038091430387FF4A
:104AB00005C00E94A923819580934303DF91CF9184
:104AC0001F910C94C9249F3F09F09DCFAECF86E083
:104AD000EEE3F3E0DF011D928A95E9F710923D03C2
:104AE00010923C030895833081F128F4813059F00D
:104AF0008230D1F00895853009F449C0B8F186308C
:104B000009F456C0089580913B03482F460F55275E
:104B1000551F4F3F510524F4680F60933B030895E0
:104B20008FEF80933B03089580911501482F460F26
:104B30005527551F4F3F510524F4680F6093150109
:104B400008958FEF80931501089580911401482FE7
:104B5000460F5527551F4F3F510524F4680F6093AA
:104B6000140108958FEF809314010895809113012B
:104B7000482F460F5527551F4F3F510524F4680F06
:104B80006093130108958FEF80931301089580912E
:104B90001201482F460F5527551F4F3F510524F44A
:104BA000680F6093120108958FEF809312010895AA
:104BB00080911101482F460F5527551F4F3F510532
:104BC00024F4680F6093110108958FEF8093110111
:104BD0000895833011F128F4813049F0823091F04A
:104BE0000895853081F120F18630C1F108958091DA
:104BF0003B03681720F4861B80933B0308951092B3
:104C00003B03089580911501681720F4861B80935B
:104C100015010895109215010895809114016817E7
:104C200020F4861B809314010895109214010895B6
:104C300080911301681720F4861B80931301089557
:104C400010921301089580911201681720F4861BB9
:104C5000809312010895109212010895809111011C
:104C6000681720F4861B809311010895109211019A
:104C700008950F931F9341E050E060E070E08A01D7
:104C80009B0104C0000F111F221F331F8A95D2F70A
:104C9000C901B8010E947B1E1F910F910C94BB1A91
:104CA000873208F043C08E3108F089C0803109F4A2
:104CB0007BC0C8F4873009F469C028F4863009F451
:104CC0005CC080E008958B3009F455C08E30C9F780
:104CD00090913703892F8B7F92FF846080933703F5
:104CE00082FD20C048C0863109F445C068F4813196
:104CF00041F70E94BB1A9091B103892F97FB87F966
:104D000080588093B10337C08931A9F18B31C9F63E
:104D100090913703892F8D7F91FF826080933703B5
:104D200081FF29C08091370381603BC0883319F12E
:104D300050F4893221F0853311F0873211F680E08A
:104D40000E94392618C08334D1F328F48A3308F43A
:104D5000B8CF8953F5CF883409F0B3CF0E94BB1A7E
:104D60002FEF83ED90E3215080409040E1F700C0A9
:104D700000000E94192381E0089580913703807F0D
:104D80008093370381E08093450308959091370322
:104D9000892F8E7F90FF81608093370380FDEBCF5A
:104DA000817F80933703E7CF90913703892F877FE7
:104DB00093FF88608093370383FDB4CFDCCF8D51A0
:104DC000BFCF80E008950C94E1268E518A3030F4F4
:104DD000E82FF0E0E153FE4F8081089580E00895D0
:104DE000CF93C82F809145038130E1F0882331F0C3
:104DF0008230F1F11092450380E012C0E0910F0182
:104E0000F09110018081813111F08232A9F78C2F4D
:104E10000E94E126811120C08C2F0E9450268170B3
:104E2000CF910895E0910F01F091100180818131BF
:104E300071F3823261F38C2F0E94E32681110AC044
:104E4000C43199F060F4CB3029F0C03141F782E0F1
:104E50008093450381E0E3CF81E090E0E0CFC93269
:104E600021F0C833B9F380E0DACF10924503FBCFCD
:104E7000C93219F188F4C43101F120F4C73081F14D
:104E800081E0CECF82EE8C0F8630D0F78C2F0E943F
:104E9000E52680934403F4CFCE3401F140F46AE078
:104EA000CB3471F7809144030E947325E9CFC1355B
:104EB00079F061E0C235B1F3E3CF809144038823F8
:104EC00019F010924403DCCF81E080934503A8CF12
:104ED00061E0809144030E94E925D2CF6AE0F9CFD6
:104EE00010923B0384E180931501C09314018CE37D
:104EF0008093130188E08093120188E2809311016E
:104F0000BFCF8091660308950F931F93CF93DF93D4
:104F100000D00F92CDB7DEB78C010E94E829823015
:104F200011F0843021F584E089831B830A8382E0B9
:104F30008093E9008FEF9091E800815095FD06C0C5
:104F400095ED9A95F1F700008111F5CF8091E80079
:104F500085FF0DC050E040E063E070E0CE010196B7
:104F60000E94052A8091E8008E778093E8000F90D8
:104F70000F900F90DF91CF911F910F910895CF93D4
:104F8000DF9300D00F92CDB7DEB72091B703243066
:104F900031F523E02983805891099B838A8382E03D
:104FA0008093E9008FEF9091E800815095FD06C055
:104FB00095ED9A95F1F700008111F5CF8091E80009
:104FC00085FF0DC050E040E063E070E0CE01019647
:104FD0000E94052A8091E8008E778093E8000F9068
:104FE0000F900F90DF91CF910895CF93DF93EC0155
:104FF0000E94E829823011F08430F9F482E0809335
:10500000E9008FEF9091E800815095FD06C095ED85
:105010009A95F1F700008111F5CF8091E80085FFA6
:105020000CC050E040E066E070E0CE010E94052A2E
:105030008091E8008E778093E800DF91CF9108950A
:10504000CF93DF93EC010E94E829823011F0843085
:10505000B9F5809120018823B1F18091B10387FFD8
:1050600032C060E282E08093E9008FEF9091E80027
:10507000815095FD06C095ED9A95F1F700008111DC
:10508000F5CF8091E80085FF1BC08091200170E082
:1050900050E040E0811104C050E040E068E070E082
:1050A000CE010E94052A8091E8008E778093E80067
:1050B00080E2FE01A6E4B3E001900D928A95E1F74B
:1050C000DF91CF91089568E081E0CDCF8091B60364
:1050D000811109C00E94932B0E94F02B8091E20065
:1050E00084608093E20008951092B60308950895B5
:1050F00008950C94872242E061EC81E00E94112B1C
:1051000042E261EC82E00C94112B8091B903833070
:1051100009F45DC030F48130B1F1823009F499C0F6
:1051200008958A3009F485C08B3009F46BC089304A
:1051300009F04CC08091B803813209F047C08091DA
:10514000BC039091BD03029708F040C08091E80035
:10515000877F8093E8008091E80082FF33C08091D0
:105160002001882329F08091F1008B7F813021F488
:105170008091F100809366038091E8008B778093A3
:10518000E8000C94452B8091B803813AF9F48091A2
:10519000E800877F8093E8008091BC039091BD0375
:1051A000892B61F460E286E493E070E00E94542A67
:1051B0008091E8008B778093E800089560E090E0AC
:1051C00080E0F3CF8091B7038111C5CF089580911E
:1051D000B803813AD9F78091BC039091BD03892B24
:1051E000A9F78091E800877F8093E8008091E8002C
:1051F00080FFFCCF809120018093F1008091E80036
:105200008E77BDCF8091B803813201F78091BC03C6
:105210009091BD03892BD1F68091E800877F809320
:10522000E8000E94452B8091BA03809320010C94E2
:10523000BB1A8091B803813249F68091E800877FDC
:105240008093E8000E94452B8091BB038093670305
:1052500008958091B803813A09F0B8CF8091E800B1
:10526000877F8093E8008091E80080FFFCCF8091E9
:105270006703C2CF84B7877F84BF0FB6F894A89521
:1052800080916000886180936000109260000FBE82
:1052900080E880936100109261000E944A150E948C
:1052A000932B0E94F02B8091E20084608093E200B7
:1052B00078940E94702E0E94501586E191E00E9421
:1052C000DD148091B703853029F00E9458150E94A3
:1052D000D913F7CF0E943F228091B503882389F329
:1052E0000E947022882369F30E94EF29EACF0C9470
:1052F0007929292F33272330310519F168F421301A
:10530000310509F44AC02230310509F44BC090E060
:1053100080E030E020E028C02132310579F12232EE
:105320003105A9F780E490E025EF35E061157105BE
:10533000D9F080EC90E025E335E061307105A1F013
:10534000E6CF99278130910599F0009741F082309E
:10535000910589F00397D9F6EEEAF4E002C0E4EE95
:10536000F4E0849190E09F01FA0131832083089555
:10537000ECECF4E0F6CFE4EBF4E0F3CF89E090E07E
:105380002AEF34E06115710579F389E090E023E1BB
:1053900035E06130710541F3BACF82E190E023E25C
:1053A00035E0E2CF8BE390E028EE34E0DDCF0895E6
:1053B000CF93C82F0E94D729C0936803CF91089537
:1053C0008091B703843011F482E0089581E008955C
:1053D00080916803811102C00C94E029089580E156
:1053E00089BD82E189BD09B400FEFDCF8091D8005E
:1053F0008F7D8093D8008091E00082608093E000F0
:105400008091E00081FDFCCF0895AF92BF92CF92D2
:10541000DF92FF920F931F93CF93DF936C01EB0109
:105420008A010E94642BF82E811123C001151105F9
:1054300039F0F80180819181C81BD90BC80ED91EA3
:10544000B12CA12C2097A9F08091E80085FD22C005
:105450008091E8008E778093E80001151105A1F096
:10546000F80180819181A80EB91EB182A08285E0E9
:10547000F82E8F2DDF91CF911F910F91FF90DF902C
:10548000CF90BF90AF9008950E94642B8823D1F2F3
:10549000F82EEFCFF60181916F018093F1002197F3
:1054A000FFEFAF1ABF0ACECFFC018091BE039091EF
:1054B000BF0386179707A0F06115710529F4909135
:1054C000E8009E779093E80090E06115710551F433
:1054D000911108C08091E80082FF34C080E00895F7
:1054E000BC01F2CF8091B7038823C1F18530C1F1AF
:1054F0008091E80083FD30C08091E80082FDEACF12
:105500008091E80080FFE1CF8091F3002091F200CC
:10551000382F6115710519F02830310558F091E0E8
:105520002830310509F090E02091E8002E77209393
:10553000E800CBCF81918093F100615071092F5F1A
:105540003F4FE7CF8091B703882341F0853041F08A
:105550008091E80083FFBECF81E0089582E0089546
:1055600083E00895FC018091BE039091BF038617EC
:105570009707A0F06115710529F48091E8008E77F6
:105580008093E80090E06115710551F4911108C015
:105590008091E80082FF35C080E00895BC01F2CF21
:1055A0008091B7038823C9F18530C9F18091E80063
:1055B00083FD31C08091E80082FDEACF8091E80050
:1055C00080FFE1CF8091F3002091F200382F611528
:1055D000710519F02830310558F091E02830310577
:1055E00009F090E08091E8008E778093E800CBCFBF
:1055F00084918093F1003196615071092F5F3F4F84
:10560000E6CF8091B703882341F0853041F0809147
:10561000E80083FFBDCF81E0089582E0089583E034
:105620000895982F973028F08F708093E90081E0DB
:1056300008959093E900242F762F50E0981731F0C9
:105640007091EC002091ED005091F00021FD02C01E
:105650009F5FE8CF3091EB003E7F3093EB003091BD
:10566000ED003D7F3093ED003091EB0031603093E1
:10567000EB007093EC002093ED005093F00020912C
:10568000EE0027FDE5CF80E008958091B80387FF05
:1056900013C08091E80082FF06C08091E8008B77FC
:1056A0008093E80004C08091B7038111F2CF089580
:1056B0008091B7038823D9F38091E80080FFF8CF69
:1056C0008091E8008E77ECCF2091E4003091E500E6
:1056D00085E6A9019091EC0090FF06C09091E8004A
:1056E00090FF06C080E008959091E80092FDFACF07
:1056F0009091B703992389F0953089F09091EB0050
:1057000095FD0FC02091E4003091E500421753074A
:1057100009F38150F1F684E0089582E0089583E072
:10572000089581E008950E94012C0E94092CE0EE6A
:10573000F0E0808181608083E8EDF0E080818F7708
:10574000808319BCA7EDB0E08C918E7F8C93808113
:105750008F7E80831092B60308950F931F93CF938B
:10576000DF930E94012C0E94092CC8EDD0E08881B3
:105770008F77888388818068888388818F7D8883FC
:1057800019BC1092B7031092B3031092B503109294
:10579000B40300EE10E0F80180818B7F8083888164
:1057A0008160888342E060E080E00E94112BE1EE9E
:1057B000F0E080818E7F8083E2EEF0E08081816086
:1057C0008083808188608083F80180818E7F8083E0
:1057D000888180618883DF91CF911F910F91089517
:1057E000E8EDF0E080818F7E8083E7EDF0E080815E
:1057F0008160808384E082BF81E08093B6030C9453
:10580000AD2BE8EDF0E080818E7F80831092E20086
:1058100008951092DA001092E10008951F920F92FD
:105820000FB60F9211242F933F934F935F936F9373
:105830007F938F939F93AF93BF93EF93FF93809149
:10584000E10082FF0BC08091E20082FF07C08091DF
:10585000E1008B7F8093E1000E946F2E8091DA003F
:1058600080FF19C08091D80080FF15C08091DA00B8
:105870008E7F8093DA008091D90080FF94C080E110
:1058800089BD82E189BD09B400FEFDCF81E080932E
:10589000B7030E9466288091E10080FF19C08091C3
:1058A000E20080FF15C08091E2008E7F8093E200CD
:1058B0008091E20080618093E2008091D800806254
:1058C0008093D80019BC85E08093B7030E947828A4
:1058D0008091E10084FF29C08091E20084FF25C00F
:1058E00080E189BD82E189BD09B400FEFDCF8091D0
:1058F000D8008F7D8093D8008091E1008F7E8093C7
:10590000E1008091E2008F7E8093E2008091E200CE
:1059100081608093E2008091B303882309F449C039
:1059200084E08093B7030E9479288091E10083FF8F
:1059300029C08091E20083FF25C08091E100877F2C
:105940008093E10082E08093B7031092B3038091CB
:10595000E1008E7F8093E1008091E2008E7F809352
:10596000E2008091E20080618093E20042E060E02A
:1059700080E00E94112B8091F00088608093F000FD
:105980000E947728FF91EF91BF91AF919F918F91E6
:105990007F916F915F914F913F912F910F900FBE2B
:1059A0000F901F90189519BC1092B7030E9474288D
:1059B00072CF8091E30087FD02C081E0B2CF83E027
:1059C000B0CF1F920F920FB60F9211242F933F93D7
:1059D0004F935F936F937F938F939F93AF93BF93F7
:1059E000CF93EF93FF93C091E900CF708091EC00CB
:1059F0001092E9008091F000877F8093F000789406
:105A00000E941D2D1092E9008091F0008860809323
:105A1000F000C093E900FF91EF91CF91BF91AF915A
:105A20009F918F917F916F915F914F913F912F91B6
:105A30000F900FBE0F901F9018951F93CF93DF9379
:105A4000CDB7DEB7AA970FB6F894DEBF0FBECDBFB5
:105A500088EB93E02091F100FC012193CF01F3E06A
:105A6000803C9F07B9F70E9485288091E80083FF5A
:105A70001EC18091B8039091B9039A3008F017C104
:105A8000E92FF0E0E156FD4C0C94FD31803899F09F
:105A9000823809F00CC18091BC038F70873008F008
:105AA00006C18093E9008091EB0085FB882780F98F
:105AB0001092E90006C08091B4039091B503911152
:105AC00082609091E800977F9093E8008093F100C6
:105AD0001092F1008091E8008E77E5C0882309F4E8
